:100000000C94E1000C94C0480C94C0480C94C04877
:100010000C94C0480C94C0480C94C0480C94C04840
:100020000C9474480C94FA400C94C0480C94C0484A
:100030000C94C0480C94C0480C94C0480C94C04820
:100040000C94C0480C94C0480C94C0480C94C04810
:100050000C94C0480C94C0480C94C0480C94C04800
:100060000C942A410C94C0480C94C0480C94C0488D
:100070000C94C0480C94C0480C9479480C94C04827
:100080000C94C0480C94C0480C94C0480C94943F05
:100090000C94C0480C94C0480C9496420C94C048F0
:1000A0000C94C0480C94C0480C94C0480C94C048B0
:1000B0000C94C0480C94283D0C947E480C94CA4083
:1000C0000C94C0480C94C0480C94C0480C94C04890
:1000D0000C94C0480C94C0480C94C0480C94C04880
:1000E0000C94C0480C94C0480C94C0480C94C04870
:1000F0000C94C048890A890A690B690B640C0F08C3
:100100007C0892086D09220A460A580C5E0CF71EFC
:10011000111F2B1F9E1F451F621F1521811FD520F8
:10012000EF2009210F21AD1CF11D1D1E341E781E6C
:10013000941EB01E4B1ECC1ED21E45235D23A3234E
:10014000BE237223882399242524442463240F2466
:10015000D923F4237E24E024FB242C27642748277A
:10016000BF270C287028472840006CDE806CDE6DAD
:100170002C0091AC6D2C6D3C806D3C6D4B0091FA68
:100180006D4B6D61806D616D6A0092096D6A6D8263
:10019000806D826D860092126D866D8A806D8A6D8B
:1001A0008E0092166D8E6D9C806D9C6DA000921AD3
:1001B0006DA06DBA806DBA6DBC00921E6DBC6DC530
:1001C000800011241FBECFEFCDBFDFE7DEBFE8E622
:1001D000F1E041E019C0B791A791379127910791BC
:1001E00007FD0EC097918791EF01F92FE82F0BBF04
:1001F00007900D92A217B307D9F7FE011BBE04C0EA
:100200001D92A217B307E1F7E13CF40721F70E9422
:0A02100002320C947D47F894FFCFF2
:10021A00534E54502055503A25730A00436F6E6E60
:10022A00656374696E6720746F2074686520436C17
:10023A006F75640D0057692D466920436F6E6E65B0
:10024A00637465640057692D466920446973636F56
:10025A006E6E65637465640A5265636F6E6E65637C
:10026A0074696E672E2E2E20004448435020495050
:10027A003A25730A004C4544205374617465203D45
:10028A002025640D0A007B5C22627574746F6E45CA
:10029A0076656E745C223A207B5C22627574746F98
:1002AA006E5F6E616D655C223A5C225357305C2248
:1002BA002C205C2270726573735F636F756E745C59
:1002CA00223A25647D0054656C656D6574727920E7
:1002DA002D3E3E20627574746F6E4576656E74208D
:1002EA00636F756E742025640D0A00646576696310
:1002FA0065732F736E3031323337333438423736C1
:10030A00323530373730312F6D65737361676573F6
:10031A002F6576656E74732F007B5C22636F756E32
:10032A007465725C223A205C2225645C227D00544A
:10033A00656C656D65747279202D3E3E20636F751C
:10034A006E74657220636F756E742025640D0A00E1
:10035A005265626F6F74696E6720696E202564202A
:10036A007365636F6E64732E2E0D0A0024696F74B1
:10037A006875622F7477696E2F50415443482F7005
:10038A00726F706572746965732F646573697265DB
:10039A00642F230024696F746875622F6D65746811
:1003AA006F64732F504F53542F230024696F74685E
:1003BA0075622F7477696E2F7265732F230000247C
:1003CA00696F746875622F7477696E2F4745542F69
:1003DA003F247269643D6765745477696E00747767
:1003EA00696E2F7265732F323030007B5C22697020
:1003FA00416464726573735C223A5C2225735C22E1
:10040A007D0024696F746875622F7477696E2F5046
:10041A00415443482F70726F706572746965732F07
:10042A007265706F727465642F3F247269643D311E
:10043A0000504F5354002264656C61795C223A5C27
:10044A0022505400226563686F537472696E675C48
:10045A00223A5C22007269643D002220220024694B
:10046A006F746875622F6D6574686F64732F726537
:10047A00732F3230302F3F2425730053227D0052D0
:10048A0065626F6F742064656C6179203D20256414
:10049A00205365630D0A007B5C2273746174757363
:1004AA005C223A5C22537563636573735C222C5C2D
:1004BA002264656C61795C223A25647D005C227D48
:1004CA00004563686F203D2025730D0A007B5C227E
:1004DA006563686F537472696E675C223A5C2225A1
:1004EA00735C227D006465736972656400222476F8
:1004FA00657273696F6E5C223A00224C4544305C27
:10050A00223A00227265706F7274526174655C22BD
:10051A003A00205C007B5C224C4544305C223A2045
:10052A00317D007B5C227265706F727452617465F2
:10053A005C223A20317D005265706F7274205261DC
:10054A007465203D20202564200D0A00417A7572C9
:10055A006520496F542043656E7472616C20636F25
:10056A006E6E656374696F6E20737563636573730A
:10057A0066756C2121210D004D5154542044697334
:10058A00636F6E6E6563746564202D205265636FB8
:10059A006E6E656374696E672E2E2E0D004E45547D
:1005AA0047454152353100436F6E6E656374696E1B
:1005BA006720746F2025730D0A006170692D00226F
:1005CA00002F3F6170692D76657273696F6E3D32D7
:1005DA003032312D30342D31320041542B4D5154AB
:1005EA0054433D342C222573220D0A004F4B003010
:1005FA002E696E2E706F6F6C2E6E74702E6F72670E
:10060A00006D656C6F6469637368697032333200B8
:10061A0067322D636572742D6470732E617A7572F8
:10062A00652D646576696365732D70726F7669737B
:10063A00696F6E696E672E6E657400736E30313243
:10064A003337333438423736323530373730310082
:10065A00306E6530304141453044302F72656769EC
:10066A007374726174696F6E732F736E30313233C3
:10067A0037333438423736323530373730312F61F5
:10068A0070692D76657273696F6E3D323031392D1E
:10069A0030332D3331004469676943657274476C9E
:1006AA006F62616C526F6F744732002A2E617A75DD
:0F06BA0072652D646576696365732E6E657400D5
:1006C90041542B4448435053433D302C312C300D79
:1006D9000A004F4B0041542B4E45544946433D3087
:1006E9002C34302C222573220D0A0041542B444806
:1006F900435053433D302C322C222573220D0A00DE
:1007090041542B4448435053433D302C312C310D37
:100719000A0041542B534F434B4F3D322C340D0AA1
:10072900002B534F434B4F3A00256C750041542B16
:10073900534F434B424C3D256C752C25640D0A00E3
:1007490041542B534F434B42523D256C752C222566
:1007590073222C25640D0A0041542B534F434B42FD
:100769004D3D256C752C25732C25640D0A004154CB
:100779002B534F434B544C533D256C752C25640D1D
:100789000A0041542B534F434B4F3D312C340D0A32
:100799000041542B534F434B434C3D256C750D0A77
:1007A9000041542B534F434B433D256C752C322C40
:1007B90025640D0A0041542B534F434B433D256C8F
:1007C900752C312C25640D0A0041542B544C53438C
:1007D9003D25642C312C222573220D0A0041542B0E
:1007E900544C53433D25642C322C222573220D0A87
:1007F9000041542B544C53433D25642C332C222562
:1008090073220D0A0041542B544C53433D25642C4B
:10081900342C222573220D0A0041542B544C534386
:100829003D25642C352C222573220D0A0041542BB9
:10083900544C53433D25642C362C222573220D0A32
:100849000041542B544C53433D25642C382C2564CA
:100859000D0A0041542B534F434B57523D256C759C
:100869002C25750D0A0041542B534F434B575254B5
:100879004F3D25642C25732C25642C25642C2225B9
:100889002E2A73220D0A0041542B534F434B5244D5
:0D0899003D256C752C25642C25640D0A008E
:1008A60041542B4D515454433D382C25640D0A00B8
:1008B6004F4B0041542B4D515454433D372C256426
:1008C6000D0A0041542B4D515454433D312C2225E1
:1008D60073220D0A0041542B4D515454433D322C82
:1008E60025640D0A0041542B4D515454433D332C7D
:1008F600222573220D0A0041542B4D515454433D79
:10090600342C222573220D0A0041542B4D51545488
:10091600433D352C222573220D0A0041542B4D519F
:100926005454433D362C25640D0A0041542B4D5139
:100936005454433D31302C310D0A0041542B4D5156
:100946005454433D392C25640D0A007B5C227061AA
:10095600796C6F61645C223A207B5C226D6F646502
:100966006C49645C223A205C2264746D693A636F58
:100976006D3A4D6963726F636869703A41565231D8
:100986003238444234385F434E414E4F3B315C224D
:100996007D7D0064746D693A005C0041542B415AB8
:1009A600555245433D312C222573220D0A004572CE
:1009B600726F7220696E2070617273696E67206D46
:1009C6006F64656C49440D0041542B4D5154544499
:1009D6004953434F4E4E3D300D0A0041542B4D5165
:1009E6005454434F4E4E3D310D0A0041542B4D5148
:1009F6005454434F4E4E3D300D0A0041542B4D5139
:100A060054545055423D25642C25642C25642C22D3
:100A16002573222C222573220D0A0041542B4D5199
:100A260054545355423D222573222C300D0A004161
:100A3600542B4D5154545355423D222573222C318B
:100A46000D0A0041542B4D5154545355423D222515
:070A560073222C320D0A008F
:100A5D00313031005B53595354454D5D3A2A205284
:100A6D006573657474696E67204E43202A200D00EE
:100A7D0041542B5253540D0A004F4B0041542B54EB
:100A8D00424C0D0A00415445300D0A0041542B478C
:100A9D004D490D0A002B474D493A0041542B474D06
:100AAD00520D0A002B474D523A0041542B44490D2B
:100ABD000A002B44493A0041542B46533D322C3108
:100ACD000D0A002B46533A322C312C0041542B4643
:100ADD00533D322C320D0A002B46533A322C322C18
:100AED000041542B54494D452C330D0A0041542BD4
:100AFD0054494D453D312C256C750D0A0041542B43
:100B0D0054494D453D322C256C750D0A0041542B31
:100B1D0054494D453D332C222573220D0A00415475
:100B2D002B4E45544946433D300D0A002B4E45543E
:100B3D004946433A0041542B534E5450433D322CB9
:100B4D00310D0A0041542B534E5450433D332C224A
:100B5D002573220D0A0041542B534E5450433D3101
:100B6D002C310D0A0041542B4D515454430D0A00A4
:100B7D002B4D515454433A002B4D515454433A3458
:100B8D00005B53595354454D5D3A2073756363654E
:100B9D00737320656E746572696E67206170702E57
:100BAD002E0D005B53595354454D5D3A5B25735DD6
:100BBD002074696D656F75742E2E0D0A00415420D9
:100BCD00436F6D6D616E6420496E7465726661630D
:020BDD006500B1
:100BDF00446576696365206973207265626F6F740F
:100BEF00696E672E2E2E210D00524E57465F5359B8
:100BFF005354454D5F4D6F64756C655F496E6974F5
:100C0F002C206661696C2E2E00232323232323239C
:100C1F002323232323232323232323232323232395
:100C2F002323232323232323232323232323232385
:100C3F00232300202057656C636F6D6520746F2030
:100C4F0074686520524E5746313120417A7572656E
:100C5F0020436C6F75642044656D6F2020000D0A72
:100C6F0057692D466920496E666F3A2D200D0A256A
:100C7F00730A000D0A4365727473206F6E20524E13
:100C8F00574631313A2D200D0A25730A000D0A4BB4
:100C9F00657973206F6E20524E574631313A2D20B1
:100CAF000D0A25730A000D0A25730A0022000D0A8A
:100CBF0053657269616C206E756D6265723A2D2095
:070CCF00736E25730A0A0091
:100CD600575354414149503A005741504149503ABF
:100CE60000575354414C443A0057535441455252CD
:100CF6003A00575354414C553A005753434E494EC8
:100D0600443A005753434E444F4E453A0054494DDA
:100D1600453A004D515454434F4E4E3A00256C759A
:100D260020252A73004D5154545355423A004D51D3
:100D3600545453554252583A0049462042757379E5
:100D4600005B49465D3A636D645B25645D202D3E1C
:100D56002025730A00524157204D6F646521005BC0
:100D660049465D3A7273705B25645D202D3E2025F1
:100D76002E2A730A000D0A0020000025730D0A00B2
:100D86005B49465D3A4145435B25645D202D3E2027
:100D960025730A005B49465D3A4E6F2046726565CB
:100DA6002D51004F4B0D0A000D2B005761697469D8
:100DB6006E6720666F7220524E57462E2E2E0D00FD
:100DC60041542B575354413D310D0A004F4B0041BE
:100DD600542B575354413D300D0A0041542B574173
:100DE600503D300D0A0041542B574150433D342CA1
:100DF60025640D0A0041542B574150433D352C259F
:100E0600640D0A0041542B57535441433D312C2263
:100E16002573220D0A0041542B57535441433D3349
:100E26002C222573220D0A0041542B57535441435B
:100E36003D322C25640D0A0041542B574150433D49
:100E4600312C222573220D0A0041542B5741504361
:100E56003D332C222573220D0A0041542B57415055
:100E6600433D322C25640D0A0041542B5741503D19
:100E7600310D0A0041542B5753434E3D300D0A00A5
:0C0E860041542B5753434E3D310D0A00E0
:100E920041542B45434352445345520D0A002B45BE
:100EA200434352445345523A004F4B0041542B4561
:100EB20043435752444556545950453D25640D0A03
:100EC2000041542B4543435244434552543D25640B
:100ED2002C25640D0A002B4543435244434552548A
:100EE2003A00256C752C256C752C2573002C00415D
:100EF200542B4543435752534C4F543D25642C25A4
:100F0200642C25642C25730D0A0041542B45434360
:100F12005752534C4F543D25642C25642C25642C88
:100F220025642C25730D0A0041542B45434352443A
:100F3200534C4F543D25642C25642C25640D0A0026
:100F420041542B4543435244534C4F543D25642C4A
:0B0F520025642C25642C25640D0A008A
:100F5D00583FF9463F42B74888475148574845489A
:100F6D004B481E469C480000000000000000000099
:100F7D00E0450000F6470000E147E847EF47000075
:100F8D0068076C094C836A9074A07AC000806888E9
:060F9D0000846C8200815B
:100FA300494E4600696E66004E414E006E616E000A
:100FB300494E4600696E66004E414E006E616E00FA
:0C0FC300404427482D488D488848000015
:0C0FCF005E4433483948974892480000BF
:070FDB00286E756C6C290003
:060FE200286E696C290075
:100FE800CF92DF92EF92FF920F931F93CF93DF93ED
:100FF800CDB7DEB7A097CDBFDEBF8B01482F50E03D
:10100800FA013197ED30F10508F05AC4F82EE65888
:10101800FF4F0C9491470115110509F453C489EC4D
:1010280096E0A0E0AF939F938F931F921F921F9219
:101038001F921F928BED96E0A0E0AF939F938F9342
:101048000E949B17F80180819181A281CDBFDEBFEC
:101058000097A105C1F0AF939F938F938EED96E013
:10106800A0E0AF939F938F931F921F921F921F929E
:101078001F928BED96E0A0E0AF939F938F930E9411
:101088009B17CDBFDEBFF80183819481A5810097AE
:10109800A105C1F0AF939F938F9384EF96E0A0E0F2
:1010A800AF939F938F931F921F921F921F921F922D
:1010B8008BED96E0A0E0AF939F938F930E949B17D0
:1010C800CDBFDEBF89E097E0A0E0AF939F938F93F9
:1010D8001F921F921F921F921F928BED96E0A0E025
:1010E800AF939F938F930E949B17CDBFDEBFEDC335
:1010F80089EC96E0A0E0AF939F938F931F921F9285
:101108001F921F921F928BED96E0A0E0AF939F93E2
:101118008F930E949B17CDBFDEBFD7C38BE197E0AB
:10112800A0E0AF939F938F93CE0101969F938F93E7
:101138008AE297E0A0E0AF939F938F938BED96E0C0
:10114800A0E0AF939F938F930E949B17CDBFDEBF04
:10115800892B09F0BCC0C8010796A0E8AF939F93FC
:101168008F9382E397E0A0E0AF939F938F93CE0194
:101178000196A0E8AF939F938F930E947743CDBFCA
:10118800DEBFF8018081813041F120F0823009F41E
:101198004DC075C0F80183818F9382818F938285BA
:1011A8008F9381858F9380858F9387818F9386E333
:1011B80097E0A0E0AF939F938F931F921F921F9287
:1011C8001F921F928BED96E0A0E0AF939F938F93B1
:1011D8000E949B17CDBFDEBF53C0F80183818F9358
:1011E80082818F9386818F9385818F9384818F935A
:1011F80082858F9381858F9380858F9387818F9345
:1012080089E497E0A0E0AF939F938F931F921F927A
:101218001F921F921F928BED96E0A0E0AF939F93D1
:101228008F930E949B17CDBFDEBF2AC0F801838130
:101238008F9382818F9386818F9385818F93848109
:101248008F9382858F9381858F9380858F938781F4
:101258008F9381E697E0A0E0AF939F938F931F92BF
:101268001F921F921F921F928BED96E0A0E0AF9302
:101278009F938F930E949B17CDBFDEBF01C080E074
:10128800F8019385992309F420C381111EC31F9285
:101298009F9382858F9381858F9380858F93878194
:1012A8008F9387E797E0A0E0AF939F938F931F9268
:1012B8001F921F921F921F928BED96E0A0E0AF93B2
:1012C8009F938F930E949B17CDBFDEBFFEC280E025
:1012D800FCC28BE897E0A0E0AF939F938F93CE0179
:1012E80001969F938F938AE297E0A0E0AF939F9334
:1012F8008F938BED96E0A0E0AF939F938F930E941E
:101308009B17CDBFDEBF892B09F094C0C801079693
:10131800A0E8AF939F938F9382E397E0A0E0AF9309
:101328009F938F93CE010196A0E8AF939F938F93DD
:101338000E947743CDBFDEBFF8018081813041F143
:1013480020F0823009F44DC077C0F80183818F9373
:1013580082818F9382858F9381858F9380858F93E8
:1013680087818F9386E397E0A0E0AF939F938F9355
:101378001F921F921F921F921F928BED96E0A0E082
:10138800AF939F938F930E949B17CDBFDEBF9DC2E3
:10139800F80183818F9382818F9386818F938581D2
:1013A8008F9384818F9382858F9381858F93808596
:1013B8008F9387818F9389E497E0A0E0AF939F9301
:1013C8008F931F921F921F921F921F928BED96E090
:1013D800A0E0AF939F938F930E949B17CDBFDEBF72
:1013E80074C2F80183818F9382818F9386818F9352
:1013F80085818F9384818F9382858F9381858F9345
:1014080080858F9387818F9381E697E0A0E0AF93E3
:101418009F938F931F921F921F921F921F928BED83
:1014280096E0A0E0AF939F938F930E949B17CDBF48
:10143800DEBF4BC280E049C280E047C2F80180812C
:101448009181A281B3810097A105B10509F43CC23D
:10145800BF93AF939F938F938AE997E0A0E0AF93F0
:101468009F938F931F921F921F921F921F928BED33
:1014780096E0A0E0AF939F938F930E949B17CDBFF8
:10148800DEBF23C2F80185811F928F9383818F93DA
:1014980082818F9381818F9380818F938AEA97E0ED
:1014A800A0E0AF939F938F931F921F921F921F925A
:1014B8001F920F2EFBEDCF2EF6E0DF2EF0E0EF2E81
:1014C800F02DEF92DF92CF920E949B17F801848152
:1014D8001F928F9383818F9382818F9381818F93C2
:1014E80080818F938EEB97E0A0E0AF939F938F93CB
:1014F8001F921F921F921F921F92EF92DF92CF921C
:101508000E949B17CDBFDEBFE0C1F80180819181A9
:10151800A2810097A105D1F0AF939F938F931F925B
:101528004F9382ED97E0A0E0AF939F938F931F9224
:101538001F921F921F921F928BED96E0A0E0AF932F
:101548009F938F930E949B17CDBFDEBFF8018381C5
:101558009481A5810097A105D1F0AF939F938F93B4
:101568001F92FF9286EE97E0A0E0AF939F938F9330
:101578001F921F921F921F921F928BED96E0A0E080
:10158800AF939F938F930E949B17CDBFDEBFF80147
:1015980086819781A0850097A105D1F0AF939F938D
:1015A8008F931F92FF928AEF97E0A0E0AF939F93EB
:1015B8008F931F921F921F921F921F928BED96E09E
:1015C800A0E0AF939F938F930E949B17CDBFDEBF80
:1015D800F80181859285A3850097A105D1F0AF9385
:1015E8009F938F931F92FF928EE098E0A0E0AF93B5
:1015F8009F938F931F921F921F921F921F928BEDA2
:1016080096E0A0E0AF939F938F930E949B17CDBF66
:10161800DEBFF80184859585A6850097A105D1F0E0
:10162800AF939F938F931F92FF9282E298E0A0E07E
:10163800AF939F938F931F921F921F921F921F9297
:101648008BED96E0A0E0AF939F938F930E949B173A
:10165800CDBFDEBFF80187859089A1890097A105D4
:10166800D1F0AF939F938F931F92FF9286E398E0F8
:10167800A0E0AF939F938F931F921F921F921F9288
:101688001F928BED96E0A0E0AF939F938F930E94FB
:101698009B17CDBFDEBF1F921F921F92FF928AE455
:1016A80098E0A0E0AF939F938F931F921F921F9291
:1016B8001F921F928BED96E0A0E0AF939F938F93BC
:1016C8000E949B17CDBFDEBF00C1F3E08F1721F04A
:1016D8006894FF24F1F802C0FF24F39461E070E0FD
:1016E80082E00E941327F80180819181A2810097EE
:1016F800A105D1F0AF939F938F931F92FF9282ED34
:1017080097E0A0E0AF939F938F931F921F921F9231
:101718001F921F928BED96E0A0E0AF939F938F935B
:101728000E949B17CDBFDEBFF80183819481A581FC
:101738000097A105D1F0AF939F938F931F92FF92CB
:1017480086EE97E0A0E0AF939F938F931F921F922E
:101758001F921F921F928BED96E0A0E0AF939F938C
:101768008F930E949B17CDBFDEBFF80186819781BA
:10177800A0850097A105D1F0AF939F938F931F92F7
:10178800FF928AEF97E0A0E0AF939F938F931F9209
:101798001F921F921F921F928BED96E0A0E0AF93CD
:1017A8009F938F930E949B17CDBFDEBFF801818561
:1017B8009285A3850097A105D1F0AF939F938F934E
:1017C8001F92FF928EE098E0A0E0AF939F938F93D3
:1017D8001F921F921F921F921F928BED96E0A0E01E
:1017E800AF939F938F930E949B17CDBFDEBFF801E5
:1017F80084859585A6850097A105D1F0AF939F9321
:101808008F931F92FF9282E298E0A0E0AF939F939C
:101818008F931F921F921F921F921F928BED96E03B
:10182800A0E0AF939F938F930E949B17CDBFDEBF1D
:10183800F80187859089A1890097A105D1F0AF9318
:101848009F938F931F92FF9286E398E0A0E0AF9357
:101858009F938F931F921F921F921F921F928BED3F
:1018680096E0A0E0AF939F938F930E949B17CDBF04
:10187800DEBF1F9281E08F931F92FF928AE498E067
:10188800A0E0AF939F938F931F921F921F921F9276
:101898001F928BED96E0A0E0AF939F938F930E94E9
:1018A8009B17CDBFDEBF11C000936C6D10936D6D9B
:1018B80080E00BC000936A6D10936B6D80E005C0EB
:1018C8008FEF03C080E001C080E0A096CDBFDEBFEF
:1018D800DF91CF911F910F91FF90EF90DF90CF9004
:0218E800089561
:1018EA00A2E9B1E0EBE7FCE00C944F457C01590119
:1018FA00C457DE4F488359836A83CC58D140C157B5
:10190A00DE4F18821982CF58D140612C712C6E019A
:10191A002EE7C21A2EEFD20A8CE891E08C0F9D1F97
:10192A000397CF56DE4F88839983C159D140C45754
:10193A00DE4F9881CC58D140C357DE4F8881CD58AD
:10194A00D140C257DE4F5881CE58D140E92FF82FE7
:10195A000E94FD47662309F40BC48AE0D6011D9252
:10196A008A95E9F722E031E02C0F3D1FF601268324
:10197A00378380E890E080879187BE0164577E4F65
:10198A00C7010E9467408C01C457DE4F8881998144
:10199A00AA81CC58D140FC015A2F0E94FD476111FF
:1019AA0016C0C157DE4F28813981CF58D140020F66
:1019BA00131FC157DE4F08831983CF58D140FC014A
:1019CA005A2F0E94FD47653209F0BBC350C06532E9
:1019DA0041F3C7010E94E2394C019FEF891699062B
:1019EA0001F1C457DE4F9881CC58D140C357DE4F1E
:1019FA008881CD58D140C257DE4F5881CE58D14048
:101A0A00E92FF82F0E94FD47062E000C770B861649
:101A1A00970639F0B701C4010E9421448EEF9FEF67
:101A2A009BC3C157DE4F88819981CF58D140019617
:101A3A00C157DE4F88839983CF58D140C457DE4FB0
:101A4A0088819981AA81CC58D1400196A11DC45799
:101A5A00DE4F88839983AA83CC58D140BE0164574C
:101A6A007E4FC7010E946740080F191F8DCF9C0146
:101A7A004A2F2F5F3F4F4F4FC457DE4F288339837A
:101A8A004A83CC58D140F60114821582F901542FA9
:101A9A000E94FD476A3261F40296A11DC457DE4FC7
:101AAA0088839983AA83CC58D14001E010E002C010
:101ABA0000E010E0C457DE4F688179818A81CC58F2
:101ACA00D1400E94E23CD60114968D939C931597BF
:101ADA00C457DE4F88819981AA81CC58D140FC0134
:101AEA005A2F0E94FD47062E000C770B605371098E
:101AFA006A30710550F40196A11DC457DE4F8883E0
:101B0A009983AA83CC58D140E3CFCE0184579E4F04
:101B1A000E949039582EC457DE4F9881CC58D14034
:101B2A00C357DE4F8881CD58D140C257DE4F588106
:101B3A00CE58D140E92FF82F0E94FD47862F660F15
:101B4A00990B0E94D947883691052CF5853691055F
:101B5A000CF0FBC08136910509F4F7C04CF48532CC
:101B6A00910509F477C18B35910509F4A2C1D9C24F
:101B7A008336910509F411C18436910509F0D1C261
:101B8A009E0121573E4FA601BE016F5F7F4FC701DD
:101B9A000E94BE4225C08037910509F479C0ACF491
:101BAA008E36910509F49EC00CF041C08936910524
:101BBA0009F0B7C29E0121573E4FA601BE016F5FD1
:101BCA007F4FC7010E94562B0BC08537910521F123
:101BDA0088379105B9F18337910509F0A2C20EC180
:101BEA0097FDBAC2C457DE4F88819981AA81CC5821
:101BFA00D1400196A11DC457DE4F88839983AA83D9
:101C0A00CC58D1400115110509F050C1652D70E07D
:101C1A00950141E050E061C09E0121573E4FA60167
:101C2A00BE016F5F7F4FC7010E94E54215C09E014A
:101C3A0021573E4FA601BE016F5F7F4FC7010E9429
:101C4A00BA350AC09E0121573E4FA601BE016F5FF9
:101C5A007F4FC7010E94AA3297FD7EC2C457DE4F4A
:101C6A0088819981AA81CC58D1400196A11DC45777
:101C7A00DE4F88839983AA83CC58D1400115110578
:101C8A0009F014C1652D70E0950140E050E025C0CF
:101C9A009E0121573E4FA601BE016F5F7F4FC701CC
:101CAA000E94AA3297FD58C2C457DE4F8881998193
:101CBA00AA81CC58D1400196A11DC457DE4F888312
:101CCA009983AA83CC58D1400115110509F0EEC0B9
:101CDA00950140E050E060EF70E0CE0101960E946D
:101CEA0051333AC2C457DE4F88819981AA81CC58B0
:101CFA00D1400196A11DC457DE4F88839983AA83D8
:101D0A00CC58D140C057DE4F9881C059D140C157F5
:101D1A00DE4F2881CF58D140892F880F880B29831D
:101D2A009A838B838C838D838E838F838887011517
:101D3A00110509F0BBC0652D70E0950140E050E047
:101D4A00CE0101960E945133B1C09E0121573E4FE8
:101D5A00A601BE016F5F7F4FC7010E94BA4897FD77
:101D6A00FBC1C457DE4F88819981AA81CC58D140E2
:101D7A000196A11DC457DE4F88839983AA83CC5844
:101D8A00D1400115110509F091C0652D70E0A5013A
:101D9A00CE0101960E94FF3FDFC1B0E85B12C1C1CC
:101DAA00F60184819581892B21F481E090E0848376
:101DBA009583C457DE4F88819981AA81CC58D14036
:101DCA000196A11DC457DE4F88839983AA83CC58F4
:101DDA00D140012B59F4D501ED91FC911197CF0116
:101DEA0003968D939C930081118102C000E010E05C
:101DFA009E0121573E4F40E050E027C0B0E85B12F9
:101E0A0090C1C457DE4F88819981AA81CC58D140AC
:101E1A000196A11DC457DE4F88839983AA83CC58A3
:101E2A00D140012B59F4D501ED91FC911197CF01C5
:101E3A0003968D939C930081118102C000E010E00B
:101E4A009E0121573E4F41E050E0B601C7010E9472
:101E5A00CA3782C1B0E85B1264C1C457DE4F8881B9
:101E6A009981AA81CC58D1400196A11DC457DE4F51
:101E7A0088839983AA83CC58D140C7010E94E2394A
:101E8A008532910581F4C157DE4F88819981CF58F7
:101E9A00D1400196C157DE4F88839983CF58D140EC
:101EAA0081E090E059C1B7010E94214480E090E0AE
:101EBA0053C1E0E85E1235C1012B59F4D501ED9109
:101ECA00FC911197CF0103968D939C930081118108
:101EDA0002C000E010E0C457DE4F88819981AA81D0
:101EEA00CC58D1409C014A2F2F5F3F4F4F4FC457C8
:101EFA00DE4F288339834A83CC58D140F901542FC5
:101F0A000E94FD476E3561F40296A11DC457DE4F4B
:101F1A0088839983AA83CC58D1409924939401C089
:101F2A00912C41E051E0692D70E0CE0101960E94AA
:101F3A00AC471982C457DE4F88819981AA81CC584F
:101F4A00D140FC015A2F0E94FD476D3279F4019667
:101F5A00A11DC457DE4F88839983AA83CC58D140E8
:101F6A0081E089198FA721E0291933C06D35D9F786
:101F7A000196A11DC457DE4F88839983AA83CC5842
:101F8A00D14081E08919A0968FAFA097ECCF662344
:101F9A0009F477C06D3259F1C457DE4F88819981AF
:101FAA00AA81CC58D140FC015A2F0E94FD47E2E099
:101FBA00F0E0EC0FFD1FE60FF11D67FDFA95208397
:101FCA000196A11DC457DE4F88839983AA83CC58F2
:101FDA00D140C457DE4F88819981AA81CC58D1401B
:101FEA00FC015A2F0E94FD476D3589F64AC0C15738
:101FFA00DE4F4881CF58D140C057DE4F3881C05993
:10200A00D140CF56DE4F5881C159D140E42FF32F2A
:10201A000E94FD47662309F4BFCF6D3509F4BCCF92
:10202A001C014A2EBFEF2B1A3B0A4B0AC457DE4F3C
:10203A00288239824A82CC58D140CF56DE4FE88175
:10204A00F981C159D140908181815281E92FF82FBC
:10205A000E94FD47A62F660FBB0BF101542D0E946B
:10206A00FD47062E000C770BA617B7070CF094CF86
:10207A001196E1E0F0E0EC0FFD1FEA0FFB1F208351
:10208A00ECCF0115110511F118012101401A510A6D
:10209A00C7010E94E2394C01E2E0F0E0EC0FFD1FBB
:1020AA00E80FF91F8081882371F1D1018D921D01FA
:1020BA00C157DE4F88819981CF58D1400196C157C7
:1020CA00DE4F88839983CF58D140DFCFC7010E9462
:1020DA00E2394C01E2E0F0E0EC0FFD1FE80FF91FD6
:1020EA008081882371F0C157DE4F88819981CF584A
:1020FA00D1400196C157DE4F88839983CF58D1408A
:10210A00E5CF412C512CB701C4010E94214441144E
:10211A00510439F00115110521F0F801E40DF51DFE
:10212A001082C457DE4F88819981AA81CC58D14048
:10213A000196A11DC457DE4F88839983AA83CC5880
:10214A00D14081E090E0BFEF8B169B0611F080E052
:10215A0090E091958195910997FD03C0680E791ECB
:10216A00E6CB8F3FEFEF9E0719F46114710409F073
:0C217A00C301CE56DE4FE2E10C94C845D4
:10218600A6E2B0E0E9ECF0E10C944F458F8F98A3FE
:102196006E8B7F8B288FFB010190F081E02DE98704
:1021A600FA87FB0102811381248135812A8B3B8BBF
:1021B6008085918589A39AA30680F781E02DE9831E
:1021C600FA83FA0180809180A280B38020E030E01B
:1021D600A901C501B4010E94A14887FF06C0B7FA4C
:1021E600B094B7F8B0948DE204C0F985F2FF69C3E4
:1021F6008BE2E981FA8180832A893B892150310962
:102206002B833C8341E050E0488B598B06C08A897A
:102216009B898B839C83188A198AD501C401BF7751
:102226000097E0E8AE07EFE7BE07F1F4F88D2F2F31
:10223600FF0F330B2154310989819A8148895989C5
:10224600840F951F2A31310520F443EB5FE060E0EF
:1022560003C047EB5FE060E00E94254789819A81D1
:102266003C01E0E88E2E1AC30197A048BF47F0F064
:10227600488D242F440F330B2154310989819A81CB
:10228600E889F9898E0F9F1F2A31310520F44BEB1F
:102296005FE060E003C04FEB5FE060E00E9425472F
:1022A60029813A81390140E8842EF8C220E030E0E5
:1022B600A901C501B4010E94A148C12CD12C20E876
:1022C600E22E2FE3F22E212C312C882309F487C02D
:1022D6008D829E82AF82B88620E030E040E251E4F3
:1022E600C701B6010E94B3482B013C01D501C401C8
:1022F60084199509A609B709B7FF07C0B095A09537
:10230600909581959F4FAF4FBF4F0297A105B1059D
:1023160034F45FEF251A350A73016201DDCFA5019A
:102326009401C301B2010E94A14887FDF2CF8D81BD
:102336009E81AF81B8858C199D09AE09BF090196AA
:10234600A11DB11D0397A105B10508F446C01D8264
:102356001E82A5019401C701B6010E94A64818165F
:10236600F4F584ED28168EEF3806E4F4ED81FE814F
:10237600EF2BC1F420E030E040E85AE5C501B40196
:102386000E94B3484B015C0120E030E040E85AE58A
:10239600C701B6010E94B3486B017C0121E030E021
:1023A6002D833E8320E030E040E251E4C701B601D0
:1023B6000E94AF486B017C0131E0231A3108D50138
:1023C600C4018C199D09AE09BF090196A11DB11D55
:1023D6000397A105B10508F0BCCF46015701488D0A
:1023E600042E000C550B488F598FCA010E94D947FD
:1023F6008A8F17FD03C00D831E8304C086E090E01C
:102406008D839E839A8D973639F4012B41F4E1E052
:10241600F0E0ED83FE8303C04A8D4F8710C02CEF9A
:1024260022162FEF32060CF451C22D813E81221660
:1024360033060CF04BC237FE4CC256E65F878D81E1
:102446009E8101968D839E839F85963699F437FEED
:1024560008C0C12CD12C90E8E92E9FE3F92E212C3F
:10246600312CEA8DE73631F02D813E81220D331D68
:102476002D833E831C2DDDA2EBA20F2D8B869C8621
:10248600AD86BE861C8A1D8A8C899D89ED81FE815A
:102496008E179F07DCF5212F3DA14BA1502F6B8591
:1024A6007C858D859E850E94AF480E9467342B01EE
:1024B6003C010E940B486B8FA3019201612F7DA105
:1024C6008BA1902F0E94B3482B853C854D855E8558
:1024D6000E9404489B01AC0150582B873C874D87CE
:1024E6005E8720E030E040E251E4612F7DA18BA1C0
:1024F600902F0E94AF48162F7DA38BA3092F4C89DE
:102506005D894F5F5F4F4C8B5D8BBECF20E030E027
:1025160040EA50E4612F7DA18BA1902F0E94B34821
:102526002B013C019B01AC016B857C858D859E85CD
:102536000E94A14887FD0DC0A30192016B857C8591
:102546008D859E850E94A148811106C0FB8DF0FDF8
:1025560003C0412C512C3201A5019401C301B201E3
:102566000E9405484B015C0120E030E040E251E466
:10257600C701B6010E94B3486B877C8B182F092FC1
:102586009B01482F592FC501B4010E94A64887FD1B
:1025960011C02FEF221A320A3F85363679F44D8163
:1025A6005E814F5F5F4F4D835E835B855DA38C8944
:1025B6008EA30BC0CB86DC8A1E2D0F2D9F859536EC
:1025C60031F0EB85EDA3FC89FEA3710106C02B85D6
:1025D6002DA33C893EA3E12CF12C48885988C12CB7
:1025E600D12C1C8A1D8A1B861C8649855A854071FA
:1025F60055274BA35CA32B853C854D815E81241713
:10260600350734F08C899D89892B09F497C0A3C0BE
:102616003201EE89FF89808591850597481659060E
:1026260088F72DA13EA1412F502FC501B4010E946C
:10263600AF480E9467346B8F7C8F8D8F9E8F0E9470
:102646000B486A30710514F069E070E08BA19CA11B
:10265600892B69F46115710551F49A8D973639F411
:10266600F7FE05C03601EFEF6E1A7E0A3BC02C89D5
:102676003D89232BA1F4F7FE12C03FEF431A530AFC
:10268600E981FA81E60DF71D4EE240838B819C813C
:1026960001978B839C83E1E0F0E0EC8BFD8BE98175
:1026A600FA81E40DF51D36016114710431F020E361
:1026B600219331E0631A7108F7CFC601840D951D89
:1026C6002B813C812C193D092C014FEF441A540AE9
:1026D600E981FA81E80FF91F605D6083C9010197FE
:1026E6008B839C832B8D3C8D4D8D5E8D6DA17EA144
:1026F600812F902F0E94B348A50194010E9404489F
:102706004B015C01B7FAB094B7F8B09420E030E022
:1027160040E251E46DA17EA1812F902F0E94AF4827
:102726006DA37EA3182F092F91E0E91AF108EB8516
:10273600FC853196EB87FC8763015DCFF985F4FF55
:102746000AC0E981FA81E40DF51D8EE280839201CB
:102756002F5F3F4F290149815A81440D551D4D83F5
:102766005E83FA011082FF85F53609F061C0E981C2
:10277600FA8129A13AA1E20FF31F3197108237FEA1
:1027860006C031942194310801E010E002C000E057
:1027960010E0E9A1FAA1319749815A81E40FF51FAA
:1027A60022E030E08AE0E82EF12CCF0149815A81FF
:1027B600841B950B2114310479F0C101B7010E94E5
:1027C6005A46805D82931B01215031098B819C8181
:1027D60001978B839C83E9CF1216130674F3FC01D1
:1027E6003197E40FF51F012B11F42BE201C02DE206
:1027F60020830297E981FA81E80FF91F288D398D28
:10280600215431092A31310510F025E601C025E4AD
:1028160020832B813C81225031092B833C8348162F
:10282600590634F4AF0160E88D819E810E942547E8
:1028360049815A813A0180E8882E998591FF2EC0F8
:1028460090FD2CC0EB81FC811E161F063CF5882DE1
:10285600B3010E94A74629813A81820F931F9C01EA
:1028660049815A81241B350BE889F9892E173F07C0
:102876004CF0FC012081EB81FC81E80FF91F2083DD
:102886000197EDCF4B815C8160E370E089819A818D
:102896008E0F9F1F0E94AC471A8A1B8A882DB30190
:1028A6000E94A746E984FA840A891B899C01682D3F
:1028B600A3018F8D98A10E94063CA696E2E10C9496
:1028C600C845598553FFA3CC80E293CC35E63F87B4
:0828D600D1CD46E64F87CECDBF
:1028DE00A0E2B0E0E5E7F4E10C944F458A8F9B8FC0
:1028EE00FB01298320812D8331813C8F828193814D
:1028FE008A8B9B8B248135812A873B8780859185A6
:10290E008D8F9E8F46805780FA01C080D180E280E5
:10291E00F38020E030E0A901C701B6010E94A14872
:10292E0087FF06C0F7FAF094F7F8F0948DE204C032
:10293E005D8152FFF4C28BE2F20180832A853B85D2
:10294E00215031092887398741E050E04B835C8361
:10295E0006C08A859B85888799871B821C82B70152
:10296E00A6017F77E9810E2E000CFF0BE88BF98B09
:10297E0041155105F0E86F07FFE77F07C1F428897D
:10298E003989215431098B819C81840D951D2A3101
:10299E00310520F443EA5FE060E003C047EA5FE000
:1029AE0060E00E94254767EA7FE080E01CC08B81D3
:1029BE009C81840D951D4130510560487F47E8F09C
:1029CE0028893989215431092A31310520F44BEAFD
:1029DE005FE060E003C04FEA5FE060E00E942547E1
:1029EE006FEA7FE080E00E94A746A20160E8ED80DA
:1029FE00FC8C0A851B859C018AC220E3FC01208386
:102A0E00EB81FC813196E40DF51D2B813C812E5F0F
:102A1E003F4F2B833C834889598941545109488F34
:102A2E00598F4A31510510F088E701C088E580833F
:102A3E0020E030E0A901C701B6010E94A148612C37
:102A4E00712C1F8E1982882309F464C050E858A394
:102A5E008FE38A832F8D398148A15A816F8D7981B9
:102A6E0088A19A810E9405485B018C01A7019601FD
:102A7E000E94A64818160CF442C09FEF691A790AF4
:102A8E00AF8EB98208A31A83E5CF20E030E040E094
:102A9E005FE36F8D798188A19A810E94B34820E00F
:102AAE0030E0A9010E94A148811118C020E030E059
:102ABE0040E85AE56F8D798188A19A810E94B348CA
:102ACE006F8F798388A39A8320E030E040E85AE53F
:102ADE00C701B6010E94B3486B017C0120E030E0D3
:102AEE0040E05FE36F8D798188A19A810E94B3489F
:102AFE006F8F798388A39A83A1E06A1A71082F8D4C
:102B0E00398148A15A81C701B6010E94A14887FDAB
:102B1E00BCCF04C0E0E8E8A3FFE3FA832A893B892F
:102B2E0037FD02C0C90102C088E190E0AC014F5FE1
:102B3E005F4F4C875D878F8C9980A8A0BA80160155
:102B4E0087011E821F829401A501B101C8010E9456
:102B5E00AF480E9467346C8B7D8B8E8B9F8B94015C
:102B6E00A5010E94B3489B01AC01B101C8010E94AE
:102B7E0004481B018C0120E030E040E85DE3B40125
:102B8E00C5010E94B3484B015C018E819F81019665
:102B9E008E839F83EA89FB89F7FF09C020E030E02E
:102BAE00A901B101C8010E94A148882341F02C85DA
:102BBE003D854E815F81421753072CF204C08E81F2
:102BCE009F818C879D8720E030E040E051E4B40186
:102BDE00C5010E94B3484B015C019B01AC01B101E0
:102BEE00C8010E94A14887FD12C0A5019401B10140
:102BFE00C8010E94A14881110DC06C897D898E8902
:102C0E009F890E940B4861707727672B19F4812CDE
:102C1E00912C5401A5019401C701B6010E940548EB
:102C2E006B017C01DC01CB01BF770097A048BF4749
:102C3E0009F4A5CE28843984F2E02F1A31082C85A8
:102C4E003D85319521953109288B398B0B811C815E
:102C5E00A12CB12C1E821F82812C912C4D8D5E8D4C
:102C6E00455051094C8B5D8B08871987EC89FD897E
:102C7E000E171F0708F092C02F8D398148A15A8177
:102C8E00C701B6010E94AF480E9467346C877D87EA
:102C9E008E879F870E940B48AB016115710539F431
:102CAE008114910421F05FEFA51AB50A4EC0EE8192
:102CBE00FF81EF2B91F48114910479F00F5F1F4F78
:102CCE00E885F985E40DF51D2EE2208331E0231A07
:102CDE003108E1E0F0E0EE83FF83F201E00FF11F37
:102CEE0095012115310529F0A0E3A1932150310959
:102CFE00F8CFF801EA0DFB1DE887F9872A183B0883
:102D0E004A3051051CF4605D7F4F02C0695A7F4FF7
:102D1E00288D398D2A31310550F4CB0180628156D0
:102D2E0091094A9720F4CB010E94B547BC01088552
:102D3E0019850F5F1F4FE885F985E40DF51D60833A
:102D4E0031E0231A3108A12CB12C2F8D398148A1E5
:102D5E005A816C857D858E859F850E94B3489B0127
:102D6E00AC01C701B6010E9404486B017C0120E052
:102D7E0030E040E85DE36F8D798188A19A810E94F1
:102D8E00B3486F8F798388A39A8341E0841A9108A0
:102D9E00888999898815990509F066CF2E813F811A
:102DAE00232B51F5F201E00FF11FA114B104E9F04C
:102DBE004A895B8914161506C4F45D8150FD15C051
:102DCE008EE28083F8013196E40DF51DC50120E3F6
:102DDE0021930197E9F70A0D1B1D0F5F1F4FC501C8
:102DEE0080959095280E391E07C08D8184FF04C0F2
:102DFE008EE280830F5F1F4FF201E00FF11FEE8313
:102E0E00FF831082ED8DFE8D3197E40DF51D10823E
:102E1E0077FE07C0719461947108EE24E394F12C4F
:102E2E0002C0E12CF12C21E030E08AE0C82ED12C3A
:102E3E00CF01841995096114710469F0C301B601BB
:102E4E000E945A46805D82933B012150310941E038
:102E5E00241A3108EDCF2130310581F3FC01319771
:102E6E00E40DF51DEF2811F42BE201C02DE22083B5
:102E7E000297F201E80FF91F288D398D2A3131059D
:102E8E0010F020E701C020E520830817190734F45D
:102E9E00AF0160E88E819F810E942547320130E8A4
:102EAE00832E4D8141FF28C040FD26C052E0251AD9
:102EBE0031081214130404F5882DB3010E94A7469D
:102ECE00840D951D9C01241935094B815C812417B5
:102EDE0035073CF0FC012081E20DF31D20830197A4
:102EEE00F1CFA10160E370E08B819C81840D951D73
:102EFE000E94AC471A861B86882DB3010E94A746F6
:102F0E00ED80FC8C0A851B859C01682DA3018A8DA2
:102F1E009B8D0E94063CA096E2E10C94C8455D8113
:082F2E0053FF17CD80E208CD2E
:102F36002F923F924F925F926F927F928F929F92C3
:102F4600AF92BF92CF92DF92EF92FF920F931F93B1
:102F5600CF93DF9300D000D0CDB7DEB719821A82A7
:102F660089A19AA1ABA1892B8A2B09F477C08091FC
:102F7600C46D813041F46FE37DE080E00E94A34799
:102F860081E090E050C28E010C5D1F4F29A13AA14D
:102F96004BA160E074E08EED93E60E94BA3B482EAA
:102FA600592E8EED93E6A0E8AF939F938F935F9291
:102FB6004F9287E49DE0A0E0AF939F938F930E948A
:102FC600EB440F2EFEEDAF2EF3E6BF2EF02DCDBF58
:102FD600DEBF0F2EF7E6CF2EFFE0DF2EF0E0EF2E5E
:102FE600F02D0F2EF3E66F2EFFE07F2EF0E08F2EF2
:102FF600F02D1FC0F6015E2D0E949A47FB01099530
:103006008823C9F0FFEFAF1ABF0AF301582D0E94BB
:103016009A47D8018C91FB01099589E69FE0A0E0CB
:10302600FC015A2F0E949A478B01F80109958823C3
:10303600E1F39A2CFB2C092D1F2DD5018C918111C2
:10304600D9CF442D552D60E070E08EED93E60E94B9
:10305600AC47EF8DF8A1309709F010828FEF9FEF04
:10306600A7E0B0E08093826D9093836DA093846D0A
:10307600B093856D0F2EF5E6CF2EFFE0DF2EF0E044
:10308600EF2EF02D0F2EF1E66F2EFFE07F2EF0E0F3
:103096008F2EF02D0EED13E61801F0E84F2E8AC1A3
:1030A600F6015E2D0E949A47FB010995882309F4D3
:1030B60081C189819A81811594408CF4A980BA8056
:1030C600C501019689839A83F301582D0E949A4778
:1030D600FB010995F501E252FC49808319C0E9819B
:1030E600FA81A981BA81A452BC498C91E552FC4966
:1030F6008083E981FA81A981BA81A352BC498C9166
:10310600E452FC49808389819A81019789839A8355
:10311600E981FA81E352FC498081833241F46BE50F
:103126007DE080E00E94A3472EEF3FEF69C18981D1
:103136009A8102970CF43EC1E981FA81E352FC4977
:1031460080818A3009F036C1E981FA81E452FC496E
:1031560080818D3009F02EC189819A8104970CF403
:103166009DC0E981FA81E552FC4980818B3409F0E2
:1031760095C0E981FA81E652FC4980818F3409F0D5
:103186008DC0E981FA81E352FC491082E981FA8116
:10319600E452FC4910828EED93E66C01F0E8EF2EC6
:1031A60029813A8189819A81FF93DF92CF923F9359
:1031B6002F939F938F9385E69DE0A0E0AF939F9317
:1031C6008F930E94EB44CDBFDEBFAF8DB8A1AB2B72
:1031D60009F40EC18C8D9D8DAE8D0097A10509F465
:1031E60048C09C014A2F6C2D7D2D8E2D0E948D3856
:1031F6003B01882E6C8D7D8D8E8D0E94A7467C01AD
:103206004BE75DE060E0C3010E949A3C8C01892B8C
:1032160009F4F1C0C801A0E82C8D3D8D4E8DBC018E
:103226008A2F0E948D38672B682BB1F0AF8DB8A11D
:103236000D900020E9F7CD0122E030E04EE75DE099
:1032460060E001970E941D45A8014E0D5F1D60E8D4
:103256008F8D98A10E9436454BE75DE060E080E0E7
:1032660090E00E949A3C8C01892BA1F620E030E088
:10327600C7C0E981FA81E752FC49108229813A8167
:10328600255031094C2D5D2D6E2D8F8D98A10E94F4
:103296001D4529813A8125503109B2C0F801808146
:1032A600853499F58181823509F084C08281823521
:1032B60009F080C0E981FA81E352FC491082E98174
:1032C600FA81E452FC4910828EED93E6A0E8AF93B2
:1032D6009F938F9381E89DE0A0E0AF939F938F9398
:1032E6000E94EB440F900F900F900F900F900F904D
:1032F6008F8D98A1009709F481C044EE53E660E8EB
:103306000E9425472FEF3FEF7BC08D3009F052C05A
:1033160081818B3209F04EC0E981FA81E252FC4983
:103326001082BE016D5F7F4F86E59DE60E946C426E
:10333600882359F1EB81FC81DF0180E093E01D9247
:103346000197E9F720E033E0642DA1018B819C8190
:103356000E940C4329813A818B819C81A0E8AF931E
:103366009F938F933F932F9386E89DE0A0E0AF93C2
:103376009F938F930E94EB446B817C818BE49DE647
:103386000E949A40CDBFDEBF05C06AE97DE080E0BD
:103396000E94A347AF8DB8A1AB2B31F489A19AA1A6
:1033A600ABA1892B8A2B19F019821A8203C020E05F
:1033B60030E026C08091826D9091836DA091846DDE
:1033C600B091856DAC01BD0141505109610971098A
:1033D6004093826D5093836D6093846D7093856D79
:1033E600892B8A2B8B2B09F05BCE20E030E008C0BE
:1033F60020E030E005C020E030E002C02FEF3FEFD4
:103406008091826D9091836DA091846DB091856D50
:103416008F3F9F4FAF4FBF4F11F42BEF3FEF1092EF
:10342600C46D822F932F2496CDBFDEBFDF91CF913F
:103436001F910F91FF90EF90DF90CF90BF90AF90CC
:103446009F908F907F906F905F904F903F902F90BE
:023456000895D7
:103458002F923F924F926F927F928F929F92AF924C
:10346800BF92CF92DF92EF92FF920F931F93CF9369
:10347800DF93CDB7DEB76297CDBFDEBF4C016B01DE
:10348800380119821A828FEF9FEF8B839C831D82EC
:103498001E824F83588729873A87A12CB12CD601E1
:1034A8002D913D914C912A0D3B1D411DB7FC4A952C
:1034B800F901542F0E94FD47862F611116C0F601AD
:1034C800208331834283F901542F0E94FD476532DE
:1034D80009F011C21901442EFFEF2F1A3F0A4F0AB3
:1034E800D6012D923D924C921BC0653241F3B40136
:1034F800082E000C990B0E946E3B4FEFA41AB40AD9
:10350800CECF6C32DCF06D3229F529813A81216009
:1035180029833A830196A11DF60180839183A283B2
:10352800F60180819181A281FC015A2F0E94FD47FA
:103538006B3239F729813A812460EACF603221F46D
:1035480029813A812860E4CF633251F429813A8194
:103558002061DECF603321F429813A812260D8CFFF
:10356800B701C6010E94AB3D8D839E8397FF0BC0B8
:1035780029813A81F1E02F2729833A839195819512
:1035880091098D839E8389819A8180FF03C08D7FF5
:1035980089839A83F60180819181A281FC015A2F47
:1035A8000E94FD476E3261F40196A11DF6018083E9
:1035B8009183A283B701C6010E94AB3D8B839C8394
:1035C800C6010E949039182FD6019C9111968C91B2
:1035D800119712965C91E92FF82F0E94FD47862FCC
:1035E800660F990B0E94D947893609F44BC084F4B9
:1035F800833609F41CC134F4853209F448C1813694
:10360800E1F053C18436F1F188360CF4EBC04DC1BA
:10361800803709F4B2C03CF48E3609F4D8C08F362E
:1036280009F46EC042C1853709F44BC0883709F4E4
:1036380086C0833709F039C110C1612F70E0A70136
:10364800CE010B960E940144892B09F44BC1F60167
:1036580080819181A2819C014A2F2F5F3F4F4F4F5C
:10366800208331834283FC015A2F0E94FD47262F75
:10367800AE01455F5F4FBE016F5F7F4FC4010E947F
:103688006F142DC1612F70E0970141E050E0CE0129
:103698000B960E94262D892B09F424C1F6018081FE
:1036A8009181A2810196A11D80839183A283AE019D
:1036B800455F5F4FBE016F5F7F4FC4010E94E52DDC
:1036C8000EC1612F70E0970140E050E0CE010B96EB
:1036D8000E94262D892B09F405C1F601808191816C
:1036E800A2810196A11D80839183A283AE01455FCB
:1036F8005F4FBE016F5F7F4FC4010E94E638EFC085
:10370800612F70E0970140E050E0CE010B960E94D7
:10371800262D892B09F4E6C0F60180819181A281CA
:103728000196A11D80839183A283AE01455F5F4FFF
:10373800BE016F5F7F4FC4010E948F36D0C0612FDA
:1037480070E0970140E050E0CE010B960E94262DD4
:10375800892B09F4C7C0F60180819181A2819C015F
:103768004A2F2F5F3F4F4F4F208331834283FC0105
:103778005A2F0E94FD47262F20C0970140E050E0B5
:1037880060EF70E0CE010B960E94262D892B09F47C
:10379800A9C0F60180819181A2810196A11D808333
:1037A8009183A2838B859C85892B31F400E010E0FE
:1037B80022EE3FE040E08DC028E7AE01455F5F4F55
:1037C800BE016F5F7F4FC4010E94162A88C0A50101
:1037D800460D571D612F70E09701CE010B960E9490
:1037E800EC3380C0612F70E0A701CE010B960E94D8
:1037F8000144892B09F476C0F60180819181A28168
:103808009C014A2F2F5F3F4F4F4F208331834283C4
:10381800FC015A2F0E94FD47262FAE01455F5F4FDE
:10382800BE016F5F7F4FC4010E94C31058C010389B
:1038380009F058C0F60180819181A2810196A11DED
:1038480080839183A283D701ED91FC911197CF01D9
:1038580002968D939C93808126C0103809F042C04F
:10386800F60180819181A2810196A11D80839183B7
:10387800A283D701ED91FC911197CF0103968D9307
:103888009C9320813181428100E010E022C01038F1
:1038980049F5F6012081318142812F5F3F4F4F4F1B
:1038A8002083318342838B870EC085E28B87F601A4
:1038B80020823182428219821A821D821E828FEFF3
:1038C8009FEF8B839C839E01255F3F4F40E801E07B
:1038D80010E0BE016F5F7F4FC4010E94A33E8A0DB6
:1038E8009B1D0AC0F60180819181A2810196A11DCC
:1038F80080839183A283C5016296CDBFDEBFDF912D
:10390800CF911F910F91FF90EF90DF90CF90BF90D4
:10391800AF909F908F907F906F904F903F902F9097
:02392800089500
:10392A00CF92DF92EF920F931F93CF93DF93CDB78E
:10393A00DEB7C854D109CDBFDEBF90E08A30910509
:10394A0008F031C28B01FC01ED56FF4F0C949147F0
:10395A001F9283E08F9386EA98E0A0E0AF939F934B
:10396A008F931F921F921F921F921F9286EB98E0CD
:10397A00A0E0AF939F938F930E949B17F8018685CF
:10398A00CDBFDEBF882381F19289992379F08130F6
:10399A0031F46089718983E00E94F4070CC0F80150
:1039AA006089718984E00E94F40705C0F801608982
:1039BA0071890E94F407F80186851F928F9389EB1B
:1039CA0098E0A0E0AF939F938F931F921F921F924C
:1039DA001F921F9286EB98E0A0E0AF939F938F937C
:1039EA000E949B17CDBFDEBFF80182818F93818130
:1039FA008F9380818F9389EC98E0A0E0AF939F9397
:103A0A008F931F921F921F921F921F920F2EF6EBF7
:103A1A00CF2EF8E0DF2EF0E0EF2EF02DEF92DF92BE
:103A2A00CF920E949B17F80185858F9384858F9387
:103A3A008BED98E0A0E0AF939F938F931F921F9214
:103A4A001F921F921F92EF92DF92CF920E949B17B2
:103A5A00F80185818F9384818F9383818F938BEE75
:103A6A0098E0A0E0AF939F938F931F921F921F92AB
:103A7A001F921F92EF92DF92CF920E949B17CDBFA7
:103A8A00DEBFF80180858F9387818F9386818F931C
:103A9A008DEF98E0A0E0AF939F938F931F921F92B0
:103AAA001F921F921F92EF92DF92CF920E949B1752
:103ABA00F80183858F9382858F9381858F938FE019
:103ACA0099E0A0E0AF939F938F931F921F921F924A
:103ADA001F921F92EF92DF92CF920E949B171F9222
:103AEA008CE38F9381E299E0A0E0AF939F938F9349
:103AFA001F921F921F921F921F92EF92DF92CF92F4
:103B0A000E949B17CDBFDEBF1F921F921F9281E3B7
:103B1A0099E0A0E0AF939F938F931F921F921F92F9
:103B2A001F921F92EF92DF92CF920E949B1782E020
:103B3A008F9388E58F9381E499E0A0E0AF939F93F8
:103B4A008F931F921F921F921F921F92EF92DF92E2
:103B5A00CF920E949B17E82E28E430E041E559E015
:103B6A0060E08E010F5F1F4FC8010E941D45B8011A
:103B7A0080E829E939E040E00E948D38A82FCB017E
:103B8A00CDBFDEBF0097A10501F14FE959E060E022
:103B9A000E949A3CA0E8AF939F938F9381EA99E0A1
:103BAA00A0E0AF939F938F931F921F921F921F9231
:103BBA001F9286EB98E0A0E0AF939F938F930E94A9
:103BCA009B17182FCDBFDEBFEFC01E2D64EB79E027
:103BDA0080E00E94A347E8C08EEC99E0A0E0AF9392
:103BEA009F938F931F921F921F921F921F920F2EC5
:103BFA00F6EBCF2EF8E0DF2EF0E0EF2EF02DEF926D
:103C0A00DF92CF920E949B1781EE99E0A0E0AF93DA
:103C1A009F938F931F921F921F921F921F92EF9250
:103C2A00DF92CF920E949B17182FCDBFDEBFBCC078
:103C3A0081EF99E0A0E0AF939F938F931F921F9219
:103C4A001F921F921F9286EB98E0A0E0AF939F937A
:103C5A008F930E949B17182FCDBFDEBFA5C08EEC95
:103C6A0099E0A0E0AF939F938F931F921F921F92A8
:103C7A001F921F9286EB98E0A0E0AF939F938F93D9
:103C8A000E949B17182FCDBFDEBF8EC0FB01808517
:103C9A008F9387818F9386818F9385818F93848178
:103CAA008F9383818F9382811F928F9381811F9239
:103CBA008F9380811F928F9381E09AE0A0E0AF9367
:103CCA009F938F931F921F921F921F921F9286EBB0
:103CDA0098E0A0E0AF939F938F930E949B17182FB1
:103CEA00CDBFDEBF61C0CB01A0E8AF939F936F93B6
:103CFA0081E29AE0A0E0AF939F938F931F921F9265
:103D0A001F921F921F9286EB98E0A0E0AF939F93B9
:103D1A008F930E949B17182FCDBFDEBF45C0CB01E2
:103D2A00A0E8AF939F936F9385E39AE0A0E0AF93E7
:103D3A009F938F931F921F921F921F921F9286EB3F
:103D4A0098E0A0E0AF939F938F930E949B17182F40
:103D5A00CDBFDEBF29C0CB01A0E8AF939F936F937D
:103D6A0089E49AE0A0E0AF939F938F931F921F92EA
:103D7A001F921F921F9286EB98E0A0E0AF939F9349
:103D8A008F930E949B17182FCDBFDEBF0DC0609383
:103D9A00886D7093896D10E007C06093866D70938B
:103DAA00876D10E001C01FEF812FC85BDF4FCDBFC9
:103DBA00DEBFDF91CF911F910F91EF90DF90CF90EF
:023DCA0008955A
:103DCC00CF92DF92EF92CF93DF9390E08C309105FE
:103DDC0030F4EB01FC01E957FF4F0C9491478FEF46
:103DEC0021C286EC9DE0A0E0AF939F938F931F922E
:103DFC001F921F921F921F9282ED9DE0A0E0AF9345
:103E0C009F938F930E949B172DB73EB7255F3F4F13
:103E1C002DBF3EBF07C285ED9DE0A0E0AF939F9301
:103E2C008F931F921F921F921F921F9282ED9DE003
:103E3C00A0E0AF939F938F930E949B172DB73EB733
:103E4C00255F3F4F2DBF3EBFEDC181EE9DE0A0E051
:103E5C00AF939F938F931F921F921F921F921F924B
:103E6C0082ED9DE0A0E0AF939F938F930E949B17F0
:103E7C002DB73EB7255F3F4F2DBF3EBFD3C18881C5
:103E8C001F928F938CEE9DE0A0E0AF939F938F9346
:103E9C001F921F921F921F921F9282ED9DE0A0E035
:103EAC00AF939F938F930E949B172DB73EB7235FC1
:103EBC003F4F2DBF3EBFB6C1CB01A0E8AF939F9340
:103ECC006F938CEE9DE0A0E0AF939F938F931F9226
:103EDC001F921F921F921F9282ED9DE0A0E0AF9364
:103EEC009F938F930E949B172DB73EB7225F3F4F36
:103EFC002DBF3EBF97C188811F928F938BEF9DE0A2
:103F0C00A0E0AF939F938F931F921F921F921F92CB
:103F1C001F9282ED9DE0A0E0AF939F938F930E9440
:103F2C009B172DB73EB7235F3F4F2DBF3EBF7AC1C6
:103F3C00888181118FC081EE9DE0A0E0AF939F93AB
:103F4C008F931F921F921F921F921F920F2EF2EDB2
:103F5C00CF2EFDE0DF2EF0E0EF2EF02DEF92DF9272
:103F6C00CF920E949B1785ED9DE0A0E0AF939F93AD
:103F7C008F931F921F921F921F921F92EF92DF92AC
:103F8C00CF920E949B178B818F938A818F9389810B
:103F9C008F938AE09EE0A0E0AF939F938F931F9244
:103FAC001F921F921F921F92EF92DF92CF920E944C
:103FBC009B178DB79EB784968DBF9EBF8E818F93B6
:103FCC008D818F938C818F938CE19EE0A0E0AF93D9
:103FDC009F938F931F921F921F921F921F92EF928B
:103FEC00DF92CF920E949B178F811F928F938EE24C
:103FFC009EE0A0E0AF939F938F931F921F921F920E
:10400C001F921F92EF92DF92CF920E949B172DB7B7
:10401C003EB7255E3F4F2DBF3EBF9885992309F4CF
:10402C0001C186EC9DE0A0E0AF939F938F931F920C
:10403C001F921F921F921F92AE2DC601AF939F939A
:10404C00CF920E949B172DB73EB7255F3F4F2DBFD8
:10405C003EBFE8C0813009F0E4C085ED9DE0A0E0F2
:10406C00AF939F938F931F921F921F921F921F9239
:10407C000F2EF2EDCF2EFDE0DF2EF0E0EF2EF02D27
:10408C00EF92DF92CF920E949B1781EE9DE0A0E011
:10409C00AF939F938F931F921F921F921F921F9209
:1040AC00EF92DF92CF920E949B178B818F938A8124
:1040BC008F9389818F938EE39EE0A0E0AF939F93C3
:1040CC008F931F921F921F921F921F92EF92DF925B
:1040DC00CF920E949B178DB79EB784968DBF9EBFC3
:1040EC008E818F938D818F938C818F938FE49EE043
:1040FC00A0E0AF939F938F931F921F921F921F92DA
:10410C001F92EF92DF92CF920E949B178F811F928A
:10411C008F9380E69EE0A0E0AF939F938F931F92C6
:10412C001F921F921F921F92EF92DF92CF920E94CA
:10413C009B171F9286E08F938CEE9DE0A0E0AF93CF
:10414C009F938F931F921F921F921F921F92EF9219
:10415C00DF92CF920E949B172DB73EB7285D3F4F41
:10416C002DBF3EBF9885992309F45CC08FE69EE075
:10417C00A0E0AF939F938F931F921F921F921F9259
:10418C001F92AE2DC601AF939F93CF920E949B17A7
:10419C002DB73EB7255F3F4F2DBF3EBF43C08AE7CB
:1041AC009EE0A0E0AF939F938F931F921F921F925C
:1041BC001F921F9282ED9DE0A0E0AF939F938F938F
:1041CC000E949B172DB73EB7255F3F4F2DBF3EBFBB
:1041DC0029C086E89EE0A0E0AF939F938F931F9237
:1041EC001F921F921F921F9282ED9DE0A0E0AF9351
:1041FC009F938F930E949B172DB73EB7255F3F4F20
:10420C002DBF3EBF0FC06093706D7093716D80E0D9
:10421C0009C060936E6D70936F6D80E003C080E099
:10422C0001C080E0DF91CF91EF90DF90CF900895A7
:10423C00ACE1B0E0E4E2F1E20C944F451B01482EF6
:10424C004887598729833A830A8F253231051CF414
:10425C002130310539F486E190E080930040909351
:10426C000140AAC161157105810509F4BEC1FB01AC
:10427C00542D0E94FD47162F662309F49DC1842CF2
:10428C003101103239F0812F012E000C990B099756
:10429C00059750F4FFEF6F1A7F0A8F0AF301582D20
:1042AC000E94FD47162FEDCF1D3261F42FEF621ADD
:1042BC00720A820AF301582D0E94FD47162F31E035
:1042CC00388B0CC01B3249F48FEF681A780A880AB5
:1042DC00F301582D0E94FD47162F188A103309F050
:1042EC0053C0E82C63019FEFC91AD90AE90AF601F9
:1042FC005E2D0E94FD47162F89819A818F7E892B16
:10430C0009F044C0862F8F7D8835A9F5E2E06E0E4A
:10431C00711C811CF301582D0E94FD47162F862F0E
:10432C008062082E000C990B81569109262F660F7E
:10433C00330B29833A834A9738F089819A810E94FA
:10434C004646892B41F067C189819A810E94B54705
:10435C008753803194F336018E2C88859985892B6F
:10436C0009F031C11B82512C912C1C8E1B8E1C828E
:10437C001D821E8260C1E981FA81EF2B09F453C1C1
:10438C0036018E2C01E00DC000E003C036018E2CEE
:10439C0001E029813A81232B21F48AE090E0898382
:1043AC009A839A8D992399F0E889E1111FC0FFEF48
:1043BC00FA8B2FEF2B8B3FEF3C8B8FEF8D8B9FEF7F
:1043CC009E8BEFEFEF8BF88F2FE7298F18C03FEF05
:1043DC003A8B8FEF8B8B9FEF9C8BEFEFED8BFFEF7F
:1043EC00FE8B2FEF2F8B388F898F09C01A8A1B8A6F
:1043FC001C8A1D8A1E8A1F8A188E90E8998F198A2A
:10440C001B82512C912C1C8E1B8E1C821D821E8299
:10441C00EA81EE0FEE0BEA87212F2062022E000CB0
:10442C00330B21563109812F012E000C990B2A31A7
:10443C00310528F40E94B54787538F8306C0C09777
:10444C000A9708F097C010531F83FF818F2FFF0F1F
:10445C00990B29813A81821793070CF08BC039890B
:10446C00311163C0AB80B52CC92CDC8CEB8CFC807F
:10447C000D811E8129813A814A85542F642F742F16
:10448C00842F942F0E94843A59016A017B018C017C
:10449C009F81990F990B2F81392F492F592F692FF4
:1044AC00792F892F0E94C7472F833B874C875D87C5
:1044BC006E877F87B82FA92F2B81352D492D5C8DC9
:1044CC006B8D7C818D819E81AF80BB84CC84DD849F
:1044DC00EE84FF840B2F1A2F0E94D04709F070F442
:1044EC008A8D882381F12A893B894C895D896E8963
:1044FC007F89888D998D0E94D04728F5E2E2F0E003
:10450C00E0930040F0930140FA89FF832B892B87BD
:10451C003C893C878D898D879E899E87EF89EF87A3
:10452C00B88DA98DF1E0F98B0EC02B812F835B86A2
:10453C009C863C8D3D878B8D8E879C819F87BD8112
:10454C00AE81E1E0E98BFFEF6F1A7F0A8F0AF3016E
:10455C00582D0E94FD47162F01E02F812B835B8481
:10456C009C843D853C8F8E858B8F9F859C83BD83E2
:10457C00AE8352CFE989E11115C0F889FF2391F080
:10458C002B81352D492D5C8D6B8D7C818D819E8190
:10459C000E94DA462B83532E942E5C8F6B8F7C8378
:1045AC008D839E8328853985232B09F444C0011102
:1045BC0012C0842C31010FC0E885F985EF2B09F46A
:1045CC00D1CE842C31011B82512C912C1C8E1B8E34
:1045DC001C821D821E82A42DC101B0E0A7FF15C054
:1045EC00E885F9856082718226C028853985232B60
:1045FC0009F4B8CE612C712C812C1B82512C912C7E
:10460C001C8E1B8E1C821D821E82E885F9856082A1
:10461C007182828210C0E82C630100E020E130E05E
:10462C0029833A8305C001E088E090E089839A836E
:10463C0036018E2CB6CE2B81352D492D5C8D6B8D94
:0E464C007C818D819E816C96E2E10C94C845C4
:10465A006F927F928F92CF92DF92EF92CF93DF93F6
:10466A00CDB7DEB7C058D109CDBFDEBF90E08031EB
:10467A00910508F0D6C1FC01E356FF4F0C9491470F
:10468A008DE79AE0A0E0AF939F938F93CE010196B6
:10469A009F938F931F921F921F9286E89AE0A0E041
:1046AA00AF939F938F930E949B17CDBFDEBFBAC172
:1046BA0089E89AE0A0E0AF939F938F931F921F928D
:1046CA001F921F921F9286E89AE0A0E0AF939F93F1
:1046DA008F930E949B17CDBFDEBF82E99AE0A0E0CC
:1046EA00AF939F938F931F921F921F921F921F92B5
:1046FA0086E89AE0A0E0AF939F938F930E949B175E
:10470A00CDBFDEBF8FC1FB01108289E99AE0A0E02C
:10471A00AF939F938F937F936F9382EA9AE0A0E07F
:10472A00AF939F938F9386E89AE0A0E0AF939F930D
:10473A008F930E949B17CDBFDEBF74C1FB0110820D
:10474A0088EA9AE0A0E0AF939F938F937F936F9349
:10475A0081EB9AE0A0E0AF939F938F9386E89AE06B
:10476A00A0E0AF939F938F930E949B17CDBFDEBFAC
:10477A0059C1FB01108287EB9AE0A0E0AF939F93A7
:10478A008F937F936F938FEB9AE0A0E0AF939F9301
:10479A008F9386E89AE0A0E0AF939F938F930E944D
:1047AA009B17CDBFDEBF3EC1FB01108284EC9AE0AD
:1047BA00A0E0AF939F938F937F936F9380ED9AE0DE
:1047CA00A0E0AF939F938F9386E89AE0A0E0AF931F
:1047DA009F938F930E949B17CDBFDEBF23C1FB011E
:1047EA00108289ED9AE0A0E0AF939F938F937F9315
:1047FA006F9385EE9AE0A0E0AF939F938F9386E83C
:10480A009AE0A0E0AF939F938F930E949B17CDBF2E
:10481A00DEBF08C18EEE9AE0A0E0AF939F938F931C
:10482A001F921F921F921F921F9286E89AE0A0E0A1
:10483A00AF939F938F930E949B17CDBFDEBFF2C0A9
:10484A00FB0183818F9382818F9381818F938081F2
:10485A008F938AEF9AE0A0E0AF939F938F931F9272
:10486A001F921F921F921F9286E89AE0A0E0AF93D0
:10487A009F938F930E949B17CDBFDEBFD3C0FB01CE
:10488A0083818F9382818F9381818F9380818F938C
:10489A008AE09BE0A0E0AF939F938F931F921F92B1
:1048AA001F921F921F9286E89AE0A0E0AF939F930F
:1048BA008F930E949B17CDBFDEBFB4C03B0130E887
:1048CA003F937F926F938AE19BE0A0E0AF939F931F
:1048DA008F931F921F921F921F921F9286E89AE04F
:1048EA00A0E0AF939F938F930E949B17CDBFDEBF2B
:1048FA0099C0FB0110828BE29BE0A0E0AF939F93EB
:10490A008F937F936F9389E39BE0A0E0AF939F938C
:10491A008F9386E89AE0A0E0AF939F938F930E94CB
:10492A009B17CDBFDEBF7EC03B0130E8832E3F938D
:10493A007F926F9382E49BE0A0E0AF939F938F9363
:10494A001F921F921F921F921F920F2EF6E8CF2ED0
:10495A00FAE0DF2EF0E0EF2EF02DEF92DF92CF9209
:10496A000E949B178F927F926F9281E59BE0A0E055
:10497A00AF939F938F931F921F921F921F921F9222
:10498A00EF92DF92CF920E949B178F927F926F9243
:10499A0083E69BE0A0E0AF939F938F931F921F92B1
:1049AA001F921F921F92EF92DF92CF920E949B1743
:1049BA00CDBFDEBF37C0FB01108282E79BE0A0E0DB
:1049CA00AF939F938F937F936F938DE79BE0A0E0C4
:1049DA00AF939F938F9386E89AE0A0E0AF939F935B
:1049EA008F930E949B17CDBFDEBF1CC0FB011082B4
:1049FA0082E79BE0A0E0AF939F938F937F936F939F
:104A0A0085E89BE0A0E0AF939F938F9386E89AE0B6
:104A1A00A0E0AF939F938F930E949B17CDBFDEBFF9
:104A2A0001C08FEFC058DF4FCDBFDEBFDF91CF91FE
:0E4A3A00EF90DF90CF908F907F906F90089557
:104A48002F923F924F926F927F928F92CF92DF92E6
:104A5800EF920F931F93CF93DF93CDB7DEB72597D0
:104A6800CDBFDEBF6C0120E8E22E28EE33E040E047
:104A78008E2DB6010E948D38672B682BE9F08CE2E9
:104A88009DE6A0E8AF939F938F9385EF93E0A0E016
:104A9800AF939F938F934EED5AE65F934F930E9487
:104AA80082468EED9AE69C0140E86CE074E080E076
:104AB8000E949A44CDBFDEBF2BE334E040E08E2D48
:104AC800B6010E948D38672B682B09F4B9C020E421
:104AD80034E040E08E2DB6010E948D381B01482E2F
:104AE8002EE434E040E08E2DB6010E948D386983B3
:104AF8007A838B832FE534E040E08E2DB6010E9447
:104B08008D386115710509F49BC02C823D823B01EB
:104B180030E8832E24E634E040E0772D882D0E948B
:104B28008D38FB0110828F927F926F9288E694E015
:104B3800A0E0AF939F938F938EED9AE69F938F9308
:104B48000E9482468C010F5F1F4FCDBFDEBF8C8154
:104B58009D810097F1F1BC0180E825E834E040E050
:104B68000E948D38FB0110829DE0290E311CB10195
:104B780080E80E94E23C80938C6D90938D6D9F93AA
:104B88008F9389E894E0A0E0AF939F938F930E945E
:104B9800EB4480918D6D8F9380918C6D8F9381EA1A
:104BA80094E0A0E0AF939F938F93980122523549E8
:104BB8002C833D833F932F930E9482468C819D8155
:104BC8009C0140E86EED7AE680E80E949A44CDBFE9
:104BD800DEBF49815A814115510591F13A0150E1F1
:104BE800650E711C80E8882E27EC34E040E0662DC5
:104BF800772D0E948D38FB0110828F927F926F92E1
:104C08008BEC94E0A0E0AF939F938F930E94EB44CA
:104C1800025215498F927F926F9287ED94E0A0E03F
:104C2800AF939F938F931F930F930E94824698018F
:104C380040E86EED7AE680E80E949A44CDBFDEBF78
:104C48002FEE34E040E08E2DB6010E948D38672BA0
:104C5800682B09F4D3C027EF34E040E08E2DB6016D
:104C68000E948D383B01882E24E035E040E08E2DEF
:104C7800B6010E948D381B01482E2DE035E040E03A
:104C88008E2DB6010E948D386B01E82E61147104D7
:104C9800810409F4B3C0882DB301645F7F4F8F4F3F
:104CA8004DE750E00E949546FB0110822114310423
:104CB800410439F1842C310138E0630E711C811CE8
:104CC8002CE135E040E0882DB3010E948D38FB01CE
:104CD80010822EE030E04FE155E060E08EED9AE67C
:104CE8000E941D45882DB3010E94E23C0E94663E49
:104CF8002EED3AE640E86CE074E080E00E949A44C9
:104D080014C02EE030E04FE155E060E08EED9AE609
:104D18000E941D4582E00E94663E2EED3AE640E87C
:104D28006CE074E080E00E949A44C114D104E1046C
:104D380009F440C04EE0C40ED11CE11C2CE135E062
:104D480040E08E2DB6010E948D38FB01108224E1CF
:104D580030E04DE255E060E08EED9AE60E941D4598
:104D68008E2DB6010E94E23C28EE33E0AC01429F52
:104D7800C001439F900D529F900D112480938A6D1E
:104D880090938B6D9F938F9381E495E0A0E0AF9310
:104D98009F938F930E94EB442EED3AE640E86CE037
:104DA80074E080E00E949A440F900F900F900F904B
:104DB8000F9024C024E130E04DE255E060E08EED34
:104DC8009AE60E941D4580918B6D8F9380918A6D24
:104DD8008F9381E495E0A0E0AF939F938F930E9417
:104DE800EB442EED3AE640E86CE074E080E00E9487
:104DF8009A440F900F900F900F900F902596CDBF6B
:104E0800DEBFDF91CF911F910F91EF90DF90CF9090
:0E4E18008F907F906F904F903F902F90089555
:104E2600CF92DF92EF92FF920F931F93CF93DF9370
:104E3600CDB7DEB7C85AD140CDBFDEBF90E08730D0
:104E4600910508F076C18B01FC01E355FF4F0C94E8
:104E56009147FB01108282E99EE0A0E0AF939F9309
:104E66008F931F936F9380EA9EE0A0E0AF939F938A
:104E76008F938BEA9EE0A0E0AF939F938F930E945F
:104E86009B17F82ECDBFDEBF56C1CB01A0E8AF936E
:104E96009F936F938EEA9EE0A0E0AF939F938F93CC
:104EA6001F921F921F921F921F928BEA9EE0A0E014
:104EB600AF939F938F930E949B17F82ECDBFDEBFB3
:104EC6003AC1FB0182818F9381818F9380811F92EA
:104ED6008F9383EC9EE0A0E0AF939F938F930F2E6A
:104EE600F2E0CF2EFEE5DF2EF02DDF92CF9288ED99
:104EF6009EE0A0E0AF939F938F938BEA9EE0A0E0A5
:104F0600AF939F938F930E949B17F82EC801059627
:104F1600A0E8AF939F938F93C8010396A0E8AF9341
:104F26009F938F9384EE9EE0A0E0AF939F938F9321
:104F3600C601A0E8AF939F93CF920E9454434FEED1
:104F46005EE060E0C6010E949A3C4FEE5EE060E0E3
:104F560080E090E00E949A3C4FEE5EE060E080E0E8
:104F660090E00E949A3CAC0160E8C80107960E9456
:104F76002547CDBFDEBFDFC0CE0101967C0188EAA2
:104F860091E0F7019C01119221503040E1F70F2E7C
:104F9600F2E2DF2EF02DD982AB01495F5F4F60E868
:104FA600CE0102960E942547F80185819681E2E0AE
:104FB600F0E0EC0FFD1FE80FF91FD0828C7F0496FE
:104FC600F80185839683970140E84F933F93EF92CC
:104FD6009F938F9384818F9383818F9382818F9305
:104FE60081818F9381EF9EE0A0E0AF939F938F9393
:104FF6001F921F921F921F921F928BEA9EE0A0E0C3
:10500600AF939F938F930E949B17F82ECDBFDEBF61
:1050160092C06B0137E0C30ED11C80E8E82E4C2D00
:105026005D2D682FCE0102960E942547F8018581E5
:1050360096818C7F049685839683EF92DF92CF923A
:105046009F938F9384818F9383818F9382818F9394
:1050560081818F9380811F928F938CE09FE0A0E0E7
:10506600AF939F938F931F921F921F921F921F922F
:105076008BEA9EE0A0E0AF939F938F930E949B17CD
:10508600F82ECDBFDEBF57C0FB0186818F93858189
:105096008F9384818F9383818F9382818F93818174
:1050A6008F938AE29FE0A0E0AF939F938F93095F6F
:1050B6001F4F1F930F9388ED9EE0A0E0AF939F9341
:1050C6008F938BEA9EE0A0E0AF939F938F930E940D
:1050D6009B17F82ECDBFDEBF2EC0FB0186818F93B6
:1050E60085818F9384818F9383818F9382818F9320
:1050F60081818F9380811F928F9382E49FE0A0E04D
:10510600AF939F938F93095F1F4F1F930F9388ED64
:105116009EE0A0E0AF939F938F938BEA9EE0A0E082
:10512600AF939F938F930E949B17F82ECDBFDEBF40
:1051360002C0FF24FA948F2DC855DE4FCDBFDEBFC7
:10514600DF91CF911F910F91FF90EF90DF90CF905D
:025156000895BA
:105158002F923F924F925F926F928F929F92AF924F
:10516800BF92CF92DF92EF92FF920F931F93CF934C
:10517800DF93CDB7DEB72797CDBFDEBF5C01A0E8D0
:10518800182F092FFA2E4AE350E0BC018A2F0E94FB
:1051980095469B01482F2F5F3F4F4F4F6901F901FB
:1051A80080E205C09C3219F4DF0111978C9391912C
:1051B8009111F8CFC9010E94B644F50180818E345F
:1051C80061F030F4843449F08D3409F496C010C18C
:1051D800843519F0873509F00BC10F2EFEE68F2EA6
:1051E800FDE69F2EF02D0F2EF2E74F2EFDE65F2EE7
:1051F800F02D0F2EFDEFEF2EF02DF401A190B190C0
:105208004F01A114B10409F473C026ED3CE040E05D
:10521800612F702F8F2D0E948D38672B682B59F4C2
:105228002FED3CE040E0612F702F8F2D0E948D38CC
:10523800672B682B29F0B60183E0F50109952AC090
:1052480027EE3CE040E0612F702F8F2D0E948D38B3
:10525800672B682B59F42FEE3CE040E0612F702F4C
:105268008F2D0E948D38672B682B29F0B60181E0BD
:10527800F50109950FC028EF3CE040E0612F702F41
:105288008F2D0E948D38672B682B21F0B60180E0A6
:10529800F501099520E03DE040E0612F702F8F2D4A
:1052A8000E948D38672B682B21F0B60184E0F50148
:1052B800099529E03DE040E0612F702F8F2D0E9475
:1052C8008D38672B682B29F0B60185E0F501099523
:1052D800E12C23E13DE040E0612F702F8F2D0E94EB
:1052E8008D38672B682B21F0B60186E0F50109950A
:1052F8004814590409F081CF7FC00F2EF6E88F2E8D
:10530800FDE69F2EF02D0F2EFAE82F2EFDE63F2EFC
:10531800F02D0F2EFDEFEF2EF02DCE0101962C0172
:10532800F0E86F2EC601A0E88D839E83AF83F40159
:10533800A190B1904F01A114B10409F454C029E11E
:105348003DE040E0612F702F8F2D0E948D38672B34
:10535800682B31F16F925F924F9283E29DE0A0E05B
:10536800AF939F938F932F812F938E818F939D81DE
:105378009F930E945443CDBFDEBF89819A81AB8140
:10538800BC81892B8A2B8B2B31F0B60180E0F5018B
:105398000995E82E05C0B60181E0F5010995E82ECA
:1053A8002BE23DE040E0612F702F8F2D0E948D3859
:1053B800672B682B29F0B60183E0F5010995E82EE3
:1053C80024E33DE040E0612F702F8F2D0E948D383F
:1053D800672B682B29F0B60182E0F5010995E82EC4
:1053E800FDEFEF1649F08214930409F0A0CF04C032
:1053F8000F2EFDEFEF2EF02D8E2D2796CDBFDEBFA1
:10540800DF91CF911F910F91FF90EF90DF90CF9098
:10541800BF90AF909F908F906F905F904F903F900C
:045428002F90089524
:10542C00A4E1B0E0ECE1FAE20C944F458F8398874D
:10543C0069837A834B8B5C8B122FDB011296ED9177
:10544C00FC91139714962D913C9115972D833E83C7
:10545C00ED90FC90119716962D903C901797F7FDB8
:10546C0003C0E894E1F802C0E1E0F0E0C70180710C
:10547C00992789879A87E4FE1FC0AB89BC892C9138
:10548C0011963C91119712964C91129713965C9130
:10549C00139714966C91149715967C9115971696F4
:1054AC008C91169717969C91A0E00E94664721F06C
:1054BC008D819E81029702C08D819E8197012870FB
:1054CC0033272B873C87E3FC0197AB89BC894C9035
:1054DC0011965C90119712966C90129713967C9083
:1054EC00139714968C90149715969C901597169666
:1054FC00AC9016971796BC90A981BA811896CD904E
:10550C00DC901997B1E0CB1AD108D101AC0DBD1DBF
:10551C001C928B839C839F01281B390B2D873E8704
:10552C00C701827099278F87988B812F012E000CD1
:10553C00990BDC01A154B109A98BBA8B32E0C316CB
:10554C00D10430F489859A85892B09F04CC073C03D
:10555C009201A301B401C501A0E00E94664781F14C
:10556C00B1E0CB1AD108C2018F7099278A3091050E
:10557C0014F4C09602C0895A9F4FE989FA897A9728
:10558C0048F49C012062215631092A31310510F46E
:10559C000E94B547F101EC0DFD1D80832B813C81F0
:1055AC00215031092B833C839201A301B401C50125
:1055BC0004E00E947E4429013A014B015C01BECFFC
:1055CC008D859E85AB81BC818A0F9B1F1816190691
:1055DC003CF21A161B060CF0B5CFEF85F889EF2BB1
:1055EC0009F0BECFAFCFAB89BC892C9111963C9101
:1055FC00119712964C91129713965C9113971496DF
:10560C006C91149715967C91159716968C9116970C
:10561C0017969C91A0E00E94664769F0F101EC0D91
:10562C00FD1D31971083B2E0CB1AD108F101EC0DBE
:10563C00FD1D80E38083EB85FC85EF2B41F0F1E0D1
:10564C00CF1AD108F101EC0DFD1D80E28083A981F8
:10565C00BA8118962D913C911997215031092C192A
:10566C003D09C20CD31CA60160E80D811E818F81FF
:10567C0098850E94063C9C01EF81F8858081918180
:10568C0090FF09C0A981BA8112968D919C911397B4
:10569C00821793070CF4C9016496E2E10C94C84597
:1056AC00A8E0B0E0ECE5FBE20C944F454C016F83B5
:1056BC007887FA0159018481958189839A83E084E2
:1056CC00F18426803780C4010E949A43F501208121
:1056DC003181820F931F8083918389819A81892BD9
:1056EC0021F4F7013197E983FA834AE0C42ED12CD7
:1056FC00612C712C00E010E0C70101978D839E8313
:10570C0089819A81081719070CF097C0ED81FE81E9
:10571C000E171F070CF091C0C4010E94E2397C01E6
:10572C009FEFE916F90639F4101611060CF485C032
:10573C008FEF9FEFA4C001151105B1F4EBE2EE164B
:10574C00F10421F0FDE2EF16F10471F4F101E082B5
:10575C00F501808191810196808391836624639405
:10576C00712C01E010E0CCCFC101800F911F8B8315
:10577C009C8306151705C1F538019FEF691A790A44
:10578C00EAE0CE16D10441F4F0E3EF16F10451F542
:10579C0028E0C22ED12C28C088E0C816D10411F5FF
:1057AC00C701806288379105E9F4C4010E94E2398F
:1057BC002C01B4010E942144C2010E943246892B63
:1057CC0071F0EB81FC81E0828301F5018081918194
:1057DC0001968083918390E1C92ED12C91CFB40195
:1057EC00C20111C0612C712CC701C0970A9770F0CF
:1057FC00F0E1CF16D10429F4C7010E943246892B5F
:10580C0081F4B401C7010E94214417C088E0C81676
:10581C00D10439F498E3E916F1041CF08AE0C82E9F
:10582C00D12CEB81FC81E0820F5F1F4FF501808151
:10583C00918101968083918363CFF101E00FF11F79
:10584C001082B10180E8FAE0CF16D10439F42AE0D5
:10585C0030E040E050E00E945D4805C0960140E019
:10586C0050E00E946348EF81F885208331834283A6
:10587C005383648375838683978380E090E02896B6
:06588C00E2E10C94C845A6
:105892002F923F924F926F927F928F92CF92DF928E
:1058A200EF92FF920F931F93CF93DF93CDB7DEB7A3
:1058B200C456D109CDBFDEBF0E943E3984EF91E0CC
:1058C2000E9472470F2EFAE0EF2EF12CF02D87E6A0
:1058D2009FE0A0E0FC015A2F0E949A476B010F2E15
:1058E200F3E62F2EFFE03F2EF0E04F2EF02D0F2E8D
:1058F200F5E66F2EFFE07F2EF0E08F2EF02DF60101
:105902000995882399F0F101542D0E949A478AEA59
:10591200FB01099589E69FE0A0E0FC015A2F0E9455
:105922009A478B01F80109958823E1F388EC90E00E
:105932000E947247F301582D0E949A47FB01099574
:105942008823E1F081E69FE0A0E0FC015A2F0E944B
:105952009A47FB010995803589F46EE87BE080E087
:105962000E94A347EF2879F00AE010E09E012F5F22
:105972003F4F7901390130E8832E1BC081E0E81ADC
:10598200F10809F0BCCF8EED9CE6A0E8AF939F939F
:105992008F9380EB9BE0A0E0AF939F938F930E9445
:1059A20004450F900F900F900F900F900F908BEF78
:1059B20039C01F921F921F921F921F921F92FF9235
:1059C200EF921F921F921F921F921F921F920E948C
:1059D2009B172AEC3BE040E0882DB3010E948D38F2
:1059E200CDBFDEBF672B682B21F40150110909F7E7
:1059F20002C0012BB1F48EED9CE6A0E8AF939F9319
:105A02008F9380EB9BE0A0E0AF939F938F930E94D4
:105A120004450F900F900F900F900F900F908BEF07
:105A220001C080E0CC59DF4FCDBFDEBFDF91CF9107
:105A32001F910F91FF90EF90DF90CF908F907F900A
:0A5A42006F904F903F902F90089551
:105A4C000F931F93CF93DF93FC01D9016838710535
:105A5C0059F194F461387105D9F12CF46038710561
:105A6C0009F483C0A5C06238710509F464C06438B8
:105A7C00710509F47AC09CC0603A710509F453C0F1
:105A8C002CF46039710509F456C092C0603C710564
:105A9C0009F443C0603F710509F08AC0CD91DC91D7
