:100000000C94D1000C94B9450C94B9450C94B945A5
:100010000C94B9450C94B9450C94B9450C94B94568
:100020000C9494430C94E33C0C94B9450C94533CCD
:100030000C94833C0C94B33C0C94B9450C94B94596
:100040000C94B9450C94B9450C94B9450C94B94538
:100050000C94B9450C94B9450C94B9450C94B94528
:100060000C94B0430C94B9450C94B9450C94B94523
:100070000C94B9450C94B9450C94A2430C94B94521
:100080000C94B9450C94B9450C94B9450C944D3B6E
:100090000C94B9450C94B9450C94E33E0C94B945C5
:1000A0000C94B9450C94B9450C94B9450C94B945D8
:1000B0000C94B9450C9429390C94BE430C94A33D7F
:1000C0000C94B9450C94133D0C94433D0C94733D32
:1000D0000C94B9450C94B9450C94B9450C94B945A8
:1000E0000C94B9450C94B9450C94B9450C94B94598
:1000F0000C94B94571188B18A5181819BF18DC187D
:100100006F18FB184F1A691A831A891A0112011203
:100110000112B912870FF40F0A10E5109A11BE11DF
:10012000AD12B312C81EA41FD31FEE1F38205720D4
:100130007720082096209C208924D224ED24A12415
:10014000B724C8255425732592253E250825232547
:10015000AD250F26400057028057025725008BA877
:1001600057255735805735575F008BCB575F5775ED
:10017000805775577E008BF5577E57828057825780
:1001800086008BFE578657AA8057AA57BA008C0262
:1001900057BA57D48057D457DA008C1257DA57E33E
:1001A000800011241FBECFEFCDBFDFE7DEBFE4E547
:1001B000F1E041E019C0B791A791379127910791DC
:1001C00007FD0EC097918791EF01F92FE82F0BBF24
:1001D00007900D92A217B307D9F7FE011BBE04C00A
:1001E0001D92A217B307E1F7E13AF40721F70E9445
:0A01F000002C0C943644F894FFCF65
:1001FA007B5C22627574746F6E4576656E745C22E0
:10020A003A207B5C22627574746F6E5F6E616D65F5
:10021A005C223A5C225357305C222C205C2270729A
:10022A006573735F636F756E745C223A25647D0033
:10023A0054656C656D65747279202D3E3E20627539
:10024A0074746F6E4576656E7420636F756E742074
:10025A0025640D0A00646576696365732F617A7592
:10026A0072655F6465765F30322F6D65737361679F
:10027A0065732F6576656E74732F007B5C22636FDE
:10028A00756E7465725C223A205C2225645C227D5C
:10029A000054656C656D65747279202D3E3E20634D
:1002AA006F756E74657220636F756E742025640DA8
:1002BA000A004C4544205374617465203D2025642E
:1002CA000D0A000024696F746875622F7477696E6D
:1002DA002F4745542F3F247269643D6765745477EC
:1002EA00696E005265626F6F74696E6720696E206D
:1002FA002564207365636F6E64732E2E0D0A007475
:10030A0077696E2F7265732F323030007B5C2269F9
:10031A0070416464726573735C223A5C2225735C73
:10032A00227D0024696F746875622F7477696E2F55
:10033A0050415443482F70726F70657274696573C7
:10034A002F7265706F727465642F3F247269643D01
:10035A003100504F5354002264656C61795C223A33
:10036A005C22505400226563686F537472696E6729
:10037A005C223A5C22007269643D00222022002439
:10038A00696F746875622F6D6574686F64732F7214
:10039A0065732F3230302F3F2425730053227D009E
:1003AA005265626F6F742064656C6179203D202507
:1003BA0064206D5365630D0A007B5C22737461745B
:1003CA0075735C223A5C22537563636573735C22AE
:1003DA002C5C2264656C61795C223A25647D005C40
:1003EA00227D004563686F203D2025730D0A007B3E
:1003FA005C226563686F537472696E675C223A5C4B
:10040A002225735C227D006465736972656400222B
:10041A002476657273696F6E5C223A00224C4544F9
:10042A00305C223A00227265706F72745261746590
:10043A005C223A00205C007B5C224C4544305C2202
:10044A003A7B5C2261635C223A3230302C5C226156
:10045A00765C223A25732C5C2261645C223A5C2227
:10046A00737563636573735C222C5C2276616C75A9
:10047A00655C223A25737D7D007B5C227265706F14
:10048A007274526174655C223A7B5C2261635C22FD
:10049A003A3230302C5C2261765C223A25732C5C2D
:1004AA002261645C223A5C22737563636573735CD0
:1004BA00222C5C2276616C75655C223A25737D7DFF
:1004CA00005265706F72742052617465203D20205D
:1004DA002564200D0A0024696F746875622F747789
:1004EA00696E2F7265732F230024696F74687562B1
:1004FA002F6D6574686F64732F504F53542F230008
:10050A0024696F746875622F7477696E2F5041542D
:10051A0043482F70726F706572746965732F6465D2
:08052A0073697265642F230060
:1005320041542B4D515454433D382C25640D0A002F
:100542004F4B0041542B4D515454433D372C25649D
:100552000D0A0041542B4D515454433D312C222558
:1005620073220D0A0041542B4D515454433D322CF9
:1005720025640D0A0041542B4D515454433D332CF4
:10058200222573220D0A0041542B4D515454433DF0
:10059200342C222573220D0A0041542B4D51545400
:1005A200433D352C222573220D0A0041542B4D5117
:1005B2005454433D362C25640D0A0041542B4D51B1
:1005C2005454444953434F4E4E3D300D0A0041545A
:1005D2002B4D515454434F4E4E3D310D0A00415460
:1005E2002B4D515454434F4E4E3D300D0A00415451
:1005F2002B4D5154545055423D25642C25642C25D5
:10060200642C222573222C222573220D0A004154C8
:100612002B4D5154545355423D222573222C300DFB
:100622000A0041542B4D5154545355423D222573D7
:10063200222C310D0A0041542B4D51545453554232
:100642003D222573222C320D0A005B4D5154545D1C
:100652003A417A7572652043656E7472616C20430B
:100662006F6E6E656374696F6E2053756363657335
:100672007366756C210D005B4D5154545D3A5065A3
:1006820072666F726D696E67204465766963652074
:1006920050726F766973696F6E696E672053657207
:1006A2007669636528445053292E2E2E0D0024644A
:1006B20070732F726567697374726174696F6E7398
:1006C2002F5055542F696F746470732D726567696A
:1006D200737465722F3F247269643D31007B5C2222
:1006E2007061796C6F61645C22203A207B5C226DC0
:1006F2006F64656C49645C22203A205C2264746DEC
:10070200693A636F6D3A4D6963726F636869703AF3
:10071200415652313238444234385F434E414E4F93
:100722003B315C227D7D005C2261737369676E657B
:10073200644875625C223A5C005C22646576696397
:100742006549645C223A5C005C22205C22002573CD
:100752002F25732F3F6170692D76657273696F6EF5
:100762003D323032312D30342D3132005C226F7007
:1007720065726174696F6E49645C223A5C0024643C
:1007820070732F726567697374726174696F6E73C7
:100792002F4745542F696F746470732D6765742DEC
:1007A2006F7065726174696F6E7374617475732FA3
:1007B2003F247269643D32266F7065726174696F9D
:1007C2006E49643D25730000246470732F7265675F
:1007D200697374726174696F6E732F7265732F23FC
:0107E2000016
:1007E3004D515454202D205265636F6E6E656374B2
:1007F300696E672E2E2E0D0044505320537461747E
:100803007573203D2025640D0A0044505320537511
:10081300636365737366756C2120436F6E6E6563E6
:1008230074696E6720746F20417A75726520496F11
:1008330054204875620D00534E54502055503A25AC
:10084300730A00436F6E6E656374696E6720746F1D
:100853002074686520436C6F75640D0057692D46DD
:100863006920436F6E6E65637465640057692D4636
:100873006920446973636F6E6E65637465640A52BD
:1008830065636F6E6E656374696E672E2E2E20002E
:10089300444843502049503A25730A004465766919
:1008A3006365206973207265626F6F74696E672E6A
:1008B3002E2E210D0023232323232323232323232A
:1008C30023232323232323232323232323232323F5
:1008D3002323232323232300202057656C636F6D79
:1008E3006520524E5746303220426173696320437C
:1008F3006C6F75642044656D6F20200057692D4629
:100903006920496E666F3A2D200D0A25730A00434C
:1009130065727473206F6E20524E574630323A2DF3
:10092300200D0A25730A004B657973206F6E2052E0
:100933004E574630323A2D200D0A25730A00302EC9
:10094300696E2E706F6F6C2E6E74702E6F726700EF
:100953004E4554474541523531006D656C6F6469AE
:10096300637368697032333200676C6F62616C2E37
:10097300617A7572652D646576696365732D70722E
:100983006F766973696F6E696E672E6E6574006149
:100993007A7572655F6465765F303200306E6530FC
:1009A300304141453044302F726567697374726119
:1009B30074696F6E732F617A7572655F6465765FB4
:1009C30030322F6170692D76657273696F6E3D32B7
:1009D3003031392D30332D33310000446967694399
:1009E300657274476C6F62616C526F6F744732004B
:1009F300676C6F62616C2E617A7572652D646576C2
:100A0300696365732E6E65740042616C74696D6F02
:100A1300726543796265725472757374526F6F7441
:010A230000D2
:100A240041542B4448435053433D302C312C300D1A
:100A34000A004F4B0041542B4E45544946433D3028
:100A44002C34302C222573220D0A0041542B4448A7
:100A5400435053433D302C322C222573220D0A007F
:100A640041542B4448435053433D302C312C310DD9
:100A74000A0041542B534F434B4F3D322C340D0A43
:100A8400002B534F434B4F3A00256C750041542BB8
:100A9400534F434B424C3D256C752C25640D0A0085
:100AA40041542B534F434B42523D256C752C222508
:100AB40073222C25640D0A0041542B534F434B429F
:100AC4004D3D256C752C25732C25640D0A0041546D
:100AD4002B534F434B544C533D256C752C25640DBF
:100AE4000A0041542B534F434B4F3D312C340D0AD4
:100AF4000041542B534F434B434C3D256C750D0A19
:100B04000041542B534F434B433D256C752C322CE1
:100B140025640D0A0041542B534F434B433D256C30
:100B2400752C312C25640D0A0041542B544C53432D
:100B34003D25642C312C222573220D0A0041542BAF
:100B4400544C53433D25642C322C222573220D0A28
:100B54000041542B544C53433D25642C332C222503
:100B640073220D0A0041542B544C53433D25642CED
:100B7400342C222573220D0A0041542B544C534328
:100B84003D25642C352C222573220D0A0041542B5B
:100B9400534F434B57523D256C752C25750D0A0058
:100BA40041542B534F434B5752544F3D25642C25EE
:100BB400732C25642C25642C22252E2A73220D0ADD
:100BC4000041542B534F434B52443D256C752C2507
:070BD400642C25640D0A00EA
:100BDB0041542B5253540D0A004F4B004154453096
:100BEB000D0A0041542B474D490D0A002B474D4927
:100BFB003A0041542B474D520D0A002B474D523AA8
:100C0B000041542B44490D0A002B44493A004154EE
:100C1B002B46533D322C310D0A002B46533A322CC6
:100C2B00312C0041542B46533D322C320D0A002BF4
:100C3B0046533A322C322C0041542B54494D452CFF
:100C4B00330D0A0041542B54494D453D312C256C35
:100C5B00750D0A0041542B54494D453D322C256CE2
:100C6B00750D0A0041542B54494D453D332C22251B
:100C7B0073220D0A0041542B4E45544946433D30D7
:100C8B000D0A002B4E45544946433A0041542B5311
:100C9B004E5450433D322C310D0A0041542B534ED0
:100CAB005450433D332C222573220D0A0041542B03
:100CBB00534E5450433D312C310D0A0041542B4DB2
:0F0CCB00515454430D0A002B4D515454433A00D9
:100CDA0041542B575354413D310D0A004F4B0041AB
:100CEA00542B575354413D300D0A0041542B574160
:100CFA00503D300D0A0041542B574150433D342C8E
:100D0A0025640D0A0041542B574150433D352C258B
:100D1A00640D0A0041542B57535441433D312C2250
:100D2A002573220D0A0041542B57535441433D3336
:100D3A002C222573220D0A0041542B575354414348
:100D4A003D322C25640D0A0041542B574150433D36
:100D5A00312C222573220D0A0041542B574150434E
:100D6A003D332C222573220D0A0041542B57415042
:100D7A00433D322C25640D0A0041542B5741503D06
:100D8A00310D0A0041542B5753434E3D300D0A0092
:0C0D9A0041542B5753434E3D310D0A00CD
:100DA600575354414149503A005741504149503AEE
:100DB60000575354414C443A0057535441455252FC
:100DC6003A00575354414C553A005753434E494EF7
:100DD600443A005753434E444F4E453A0054494D0A
:100DE600453A00256C7520252A7300534F434B5412
:100DF6004C533A00534F434B494E443A00534F43EA
:100E06004B434C3A00534F434B5258543A00252A11
:100E16006C7520257500534F434B4552523A004D91
:100E2600515454434F4E4E3A004D5154545355422B
:100E36003A004D51545453554252583A00494620AF
:100E460042757379000D0A002000004F4B0D0A0011
:030E56000D2B0061
:100E5900DA3A76438D3EAA4541442F453545234527
:100E6900294574428A450000000000000000000086
:100E79008F450000BF440000AA44B144B8440000B3
:100E890068076C094C836A9074A07AC000806888EE
:060E990000846C82008160
:100E9F00494E4600696E66004E414E006E616E000F
:100EAF00494E4600696E66004E414E006E616E00FF
:0C0EBF00D7400B4511457B4576450000EF
:0C0ECB00F54017451D4585458045000099
:070ED700286E756C6C290008
:060EDE00286E696C29007A
:100EE400A2E9B1E0E8E7F7E00C94E6417C0159019E
:100EF400C457DE4F488359836A83CC58D140C157C5
:100F0400DE4F18821982CF58D140612C712C6E01AA
:100F14002EE7C21A2EEFD20A8CE891E08C0F9D1FA7
:100F24000397CF56DE4F88839983C159D140C45764
:100F3400DE4F9881CC58D140C357DE4F8881CD58BD
:100F4400D140C257DE4F5881CE58D140E92FF82FF7
:100F54000E94DB44662309F40BC48AE0D6011D9287
:100F64008A95E9F722E031E02C0F3D1FF601268334
:100F7400378380E890E080879187BE0164577E4F75
:100F8400C7010E94203C8C01C457DE4F888199819F
:100F9400AA81CC58D140FC015A2F0E94DB44611134
:100FA40016C0C157DE4F28813981CF58D140020F76
:100FB400131FC157DE4F08831983CF58D140FC015A
:100FC4005A2F0E94DB44653209F0BBC350C065321E
:100FD40041F3C7010E94E7354C019FEF891699063A
:100FE40001F1C457DE4F9881CC58D140C357DE4F2E
:100FF4008881CD58D140C257DE4F5881CE58D14058
:10100400E92FF82F0E94DB44062E000C770B86167E
:10101400970639F0B701C4010E94B8408EEF9FEFE4
:101024009BC3C157DE4F88819981CF58D140019627
:10103400C157DE4F88839983CF58D140C457DE4FC0
:1010440088819981AA81CC58D1400196A11DC457A9
:10105400DE4F88839983AA83CC58D140BE0164575C
:101064007E4FC7010E94203C080F191F8DCF9C01A1
:101074004A2F2F5F3F4F4F4FC457DE4F288339838A
:101084004A83CC58D140F60114821582F901542FB9
:101094000E94DB446A3261F40296A11DC457DE4FFC
:1010A40088839983AA83CC58D14001E010E002C020
:1010B40000E010E0C457DE4F688179818A81CC5802
:1010C400D1400E94E338D60114968D939C931597D2
:1010D400C457DE4F88819981AA81CC58D140FC0144
:1010E4005A2F0E94DB44062E000C770B60537109C3
:1010F4006A30710550F40196A11DC457DE4F8883F0
:101104009983AA83CC58D140E3CFCE0184579E4F14
:101114000E944435582EC457DE4F9881CC58D14094
:10112400C357DE4F8881CD58D140C257DE4F588116
:10113400CE58D140E92FF82F0E94DB44862F660F4A
:10114400990B0E94A244883691052CF585369105A9
:101154000CF0FBC08136910509F4F7C04CF48532DC
:10116400910509F477C18B35910509F4A2C1D9C25F
:101174008336910509F411C18436910509F0D1C271
:101184009E0121573E4FA601BE016F5F7F4FC701ED
:101194000E94333F25C08037910509F479C0ACF42F
:1011A4008E36910509F49EC00CF041C08936910534
:1011B40009F0B7C29E0121573E4FA601BE016F5FE1
:1011C4007F4FC7010E94DD280BC08537910521F1AF
:1011D40088379105B9F18337910509F0A2C20EC190
:1011E40097FDBAC2C457DE4F88819981AA81CC5831
:1011F400D1400196A11DC457DE4F88839983AA83E9
:10120400CC58D1400115110509F050C1652D70E08D
:10121400950141E050E061C09E0121573E4FA60177
:10122400BE016F5F7F4FC7010E945A3F15C09E01E8
:1012340021573E4FA601BE016F5F7F4FC7010E9439
:10124400C0310AC09E0121573E4FA601BE016F5F07
:101254007F4FC7010E94582D97FD7EC2C457DE4FB1
:1012640088819981AA81CC58D1400196A11DC45787
:10127400DE4F88839983AA83CC58D1400115110588
:1012840009F014C1652D70E0950140E050E025C0DF
:101294009E0121573E4FA601BE016F5F7F4FC701DC
:1012A4000E94582D97FD58C2C457DE4F88819981FA
:1012B400AA81CC58D1400196A11DC457DE4F888322
:1012C4009983AA83CC58D1400115110509F0EEC0C9
:1012D400950140E050E060EF70E0CE0101960E947D
:1012E4003D2F3AC2C457DE4F88819981AA81CC58D8
:1012F400D1400196A11DC457DE4F88839983AA83E8
:10130400CC58D140C057DE4F9881C059D140C15705
:10131400DE4F2881CF58D140892F880F880B29832D
:101324009A838B838C838D838E838F838887011527
:10133400110509F0BBC0652D70E0950140E050E057
:10134400CE0101960E943D2FB1C09E0121573E4F10
:10135400A601BE016F5F7F4FC7010E94B34597FD91
:10136400FBC1C457DE4F88819981AA81CC58D140F2
:101374000196A11DC457DE4F88839983AA83CC5854
:10138400D1400115110509F091C0652D70E0A5014A
:10139400CE0101960E94B83BDFC1B0E85B12C1C127
:1013A400F60184819581892B21F481E090E0848386
:1013B4009583C457DE4F88819981AA81CC58D14046
:1013C4000196A11DC457DE4F88839983AA83CC5804
:1013D400D140012B59F4D501ED91FC911197CF0126
:1013E40003968D939C930081118102C000E010E06C
:1013F4009E0121573E4F40E050E027C0B0E85B1209
:1014040090C1C457DE4F88819981AA81CC58D140BC
:101414000196A11DC457DE4F88839983AA83CC58B3
:10142400D140012B59F4D501ED91FC911197CF01D5
:1014340003968D939C930081118102C000E010E01B
:101444009E0121573E4F41E050E0B601C7010E9482
:10145400D03382C1B0E85B1264C1C457DE4F8881C7
:101464009981AA81CC58D1400196A11DC457DE4F61
:1014740088839983AA83CC58D140C7010E94E73559
:101484008532910581F4C157DE4F88819981CF5807
:10149400D1400196C157DE4F88839983CF58D140FC
:1014A40081E090E059C1B7010E94B84080E090E02B
:1014B40053C1E0E85E1235C1012B59F4D501ED9119
:1014C400FC911197CF0103968D939C930081118118
:1014D40002C000E010E0C457DE4F88819981AA81E0
:1014E400CC58D1409C014A2F2F5F3F4F4F4FC457D8
:1014F400DE4F288339834A83CC58D140F901542FD5
:101504000E94DB446E3561F40296A11DC457DE4F80
:1015140088839983AA83CC58D1409924939401C099
:10152400912C41E051E0692D70E0CE0101960E94BA
:1015340065441982C457DE4F88819981AA81CC58A9
:10154400D140FC015A2F0E94DB446D3279F401969C
:10155400A11DC457DE4F88839983AA83CC58D140F8
:1015640081E089198FA721E0291933C06D35D9F796
:101574000196A11DC457DE4F88839983AA83CC5852
:10158400D14081E08919A0968FAFA097ECCF662354
:1015940009F477C06D3259F1C457DE4F88819981BF
:1015A400AA81CC58D140FC015A2F0E94DB44E2E0CE
:1015B400F0E0EC0FFD1FE60FF11D67FDFA952083A7
:1015C4000196A11DC457DE4F88839983AA83CC5802
:1015D400D140C457DE4F88819981AA81CC58D1402B
:1015E400FC015A2F0E94DB446D3589F64AC0C1576D
:1015F400DE4F4881CF58D140C057DE4F3881C059A3
:10160400D140CF56DE4F5881C159D140E42FF32F3A
:101614000E94DB44662309F4BFCF6D3509F4BCCFC7
:101624001C014A2EBFEF2B1A3B0A4B0AC457DE4F4C
:10163400288239824A82CC58D140CF56DE4FE88185
:10164400F981C159D140908181815281E92FF82FCC
:101654000E94DB44A62F660FBB0BF101542D0E94A0
:10166400DB44062E000C770BA617B7070CF094CFBB
:101674001196E1E0F0E0EC0FFD1FEA0FFB1F208361
:10168400ECCF0115110511F118012101401A510A7D
:10169400C7010E94E7354C01E2E0F0E0EC0FFD1FCA
:1016A400E80FF91F8081882371F1D1018D921D010A
:1016B400C157DE4F88819981CF58D1400196C157D7
:1016C400DE4F88839983CF58D140DFCFC7010E9472
:1016D400E7354C01E2E0F0E0EC0FFD1FE80FF91FE5
:1016E4008081882371F0C157DE4F88819981CF585A
:1016F400D1400196C157DE4F88839983CF58D1409A
:10170400E5CF412C512CB701C4010E94B8404114CB
:10171400510439F00115110521F0F801E40DF51D0E
:101724001082C457DE4F88819981AA81CC58D14058
:101734000196A11DC457DE4F88839983AA83CC5890
:10174400D14081E090E0BFEF8B169B0611F080E062
:1017540090E091958195910997FD03C0680E791EDB
:10176400E6CB8F3FEFEF9E0719F46114710409F083
:0C177400C301CE56DE4FE2E10C94474268
:10178000A6E2B0E0E6ECFBE00C94E6418F8F98A374
:101790006E8B7F8B288FFB010190F081E02DE98714
:1017A000FA87FB0102811381248135812A8B3B8BCF
:1017B0008085918589A39AA30680F781E02DE9832E
:1017C000FA83FA0180809180A280B38020E030E02B
:1017D000A901C501B4010E94944587FF06C0B7FA6C
:1017E000B094B7F8B0948DE204C0F985F2FF69C3F4
:1017F0008BE2E981FA8180832A893B892150310972
:101800002B833C8341E050E0488B598B06C08A898A
:101810009B898B839C83188A198AD501C401BF7761
:101820000097E0E8AE07EFE7BE07F1F4F88D2F2F41
:10183000FF0F330B2154310989819A8148895989D5
:10184000840F951F2A31310520F44FEA5EE060E0F5
:1018500003C043EB5EE060E00E94E84389819A8127
:101860003C01E0E88E2E1AC30197A048BF47F0F074
:10187000488D242F440F330B2154310989819A81DB
:10188000E889F9898E0F9F1F2A31310520F447EB33
:101890005EE060E003C04BEB5EE060E00E94E84386
:1018A00029813A81390140E8842EF8C220E030E0F5
:1018B000A901C501B4010E949445C12CD12C20E896
:1018C000E22E2FE3F22E212C312C882309F487C03D
:1018D0008D829E82AF82B88620E030E040E251E403
:1018E000C701B6010E94A6452B013C01D501C401E8
:1018F00084199509A609B709B7FF07C0B095A09547
:10190000909581959F4FAF4FBF4F0297A105B105AD
:1019100034F45FEF251A350A73016201DDCFA501AA
:101920009401C301B2010E94944587FDF2CF8D81DD
:101930009E81AF81B8858C199D09AE09BF090196BA
:10194000A11DB11D0397A105B10508F446C01D8274
:101950001E82A5019401C701B6010E94994518167F
:10196000F4F584ED28168EEF3806E4F4ED81FE815F
:10197000EF2BC1F420E030E040E85AE5C501B401A6
:101980000E94A6454B015C0120E030E040E85AE5AA
:10199000C701B6010E94A6456B017C0121E030E041
:1019A0002D833E8320E030E040E251E4C701B601E0
:1019B0000E94A2456B017C0131E0231A3108D50158
:1019C000C4018C199D09AE09BF090196A11DB11D65
:1019D0000397A105B10508F0BCCF46015701488D1A
:1019E000042E000C550B488F598FCA010E94A24447
:1019F0008A8F17FD03C00D831E8304C086E090E02C
:101A00008D839E839A8D973639F4012B41F4E1E062
:101A1000F0E0ED83FE8303C04A8D4F8710C02CEFAA
:101A200022162FEF32060CF451C22D813E81221670
:101A300033060CF04BC237FE4CC256E65F878D81F1
:101A40009E8101968D839E839F85963699F437FEFD
:101A500008C0C12CD12C90E8E92E9FE3F92E212C4F
:101A6000312CEA8DE73631F02D813E81220D331D78
:101A70002D833E831C2DDDA2EBA20F2D8B869C8631
:101A8000AD86BE861C8A1D8A8C899D89ED81FE816A
:101A90008E179F07DCF5212F3DA14BA1502F6B85A1
:101AA0007C858D859E850E94A2450E94D82F2B01A2
:101AB0003C010E94E9446B8FA3019201612F7DA13B
:101AC0008BA1902F0E94A6452B853C854D855E8578
:101AD0000E94E2449B01AC0150582B873C874D8704
:101AE0005E8720E030E040E251E4612F7DA18BA1D0
:101AF000902F0E94A245162F7DA38BA3092F4C89FE
:101B00005D894F5F5F4F4C8B5D8BBECF20E030E037
:101B100040EA50E4612F7DA18BA1902F0E94A64541
:101B20002B013C019B01AC016B857C858D859E85DD
:101B30000E94944587FD0DC0A30192016B857C85B1
:101B40008D859E850E949445811106C0FB8DF0FD18
:101B500003C0412C512C3201A5019401C301B201F3
:101B60000E94E3444B015C0120E030E040E251E49C
:101B7000C701B6010E94A6456B877C8B182F092FE1
:101B80009B01482F592FC501B4010E94994587FD3B
:101B900011C02FEF221A320A3F85363679F44D8173
:101BA0005E814F5F5F4F4D835E835B855DA38C8954
:101BB0008EA30BC0CB86DC8A1E2D0F2D9F859536FC
:101BC00031F0EB85EDA3FC89FEA3710106C02B85E6
:101BD0002DA33C893EA3E12CF12C48885988C12CC7
:101BE000D12C1C8A1D8A1B861C8649855A8540710A
:101BF00055274BA35CA32B853C854D815E81241723
:101C0000350734F08C899D89892B09F497C0A3C0CE
:101C10003201EE89FF89808591850597481659061E
:101C200088F72DA13EA1412F502FC501B4010E947C
:101C3000A2450E94D82F6B8F7C8F8D8F9E8F0E9424
:101C4000E9446A30710514F069E070E08BA19CA151
:101C5000892B69F46115710551F49A8D973639F421
:101C6000F7FE05C03601EFEF6E1A7E0A3BC02C89E5
:101C70003D89232BA1F4F7FE12C03FEF431A530A0C
:101C8000E981FA81E60DF71D4EE240838B819C814C
:101C900001978B839C83E1E0F0E0EC8BFD8BE98185
:101CA000FA81E40DF51D36016114710431F020E371
:101CB000219331E0631A7108F7CFC601840D951D99
:101CC0002B813C812C193D092C014FEF441A540AF9
:101CD000E981FA81E80FF91F605D6083C90101970E
:101CE0008B839C832B8D3C8D4D8D5E8D6DA17EA154
:101CF000812F902F0E94A645A50194010E94E244E5
:101D00004B015C01B7FAB094B7F8B09420E030E032
:101D100040E251E46DA17EA1812F902F0E94A24547
:101D20006DA37EA3182F092F91E0E91AF108EB8526
:101D3000FC853196EB87FC8763015DCFF985F4FF65
:101D40000AC0E981FA81E40DF51D8EE280839201DB
:101D50002F5F3F4F290149815A81440D551D4D8305
:101D60005E83FA011082FF85F53609F061C0E981D2
:101D7000FA8129A13AA1E20FF31F3197108237FEB1
:101D800006C031942194310801E010E002C000E067
:101D900010E0E9A1FAA1319749815A81E40FF51FBA
:101DA00022E030E08AE0E82EF12CCF0149815A810F
:101DB000841B950B2114310479F0C101B7010E94F5
:101DC000C442805D82931B01215031098B819C812B
:101DD00001978B839C83E9CF1216130674F3FC01E1
:101DE0003197E40FF51F012B11F42BE201C02DE216
:101DF00020830297E981FA81E80FF91F288D398D38
:101E0000215431092A31310510F025E601C025E4BD
:101E100020832B813C81225031092B833C8348163F
:101E2000590634F4AF0160E88D819E810E94E84339
:101E300049815A813A0180E8882E998591FF2EC008
:101E400090FD2CC0EB81FC811E161F063CF5882DF1
:101E5000B3010E94244329813A81820F931F9C0180
:101E600049815A81241B350BE889F9892E173F07D0
:101E70004CF0FC012081EB81FC81E80FF91F2083ED
:101E80000197EDCF4B815C8160E370E089819A819D
:101E90008E0F9F1F0E9465441A8A1B8A882DB301EA
:101EA0000E942443E984FA840A891B899C01682DD5
:101EB000A3018F8D98A10E94BE37A696E2E10C94F3
:101EC0004742598553FFA3CC80E293CC35E63F8748
:081ED000D1CD46E64F87CECDCF
:101ED800CF92DF92EF92FF920F931F93CF93DF93EE
:101EE800CDB7DEB7A097CDBFDEBF8B01482F50E03E
:101EF800FA013197EC30F10508F037C3F82EEA57AC
:101F0800FF4F0C944A440115110509F430C384E2CB
:101F18009AE0A0E0AF939F938F931F921F921F9216
:101F28001F921F9286E39AE0A0E0AF939F938F934E
:101F38000E94AB20F80180819181A281CDBFDEBFD4
:101F48000097A105C1F0AF939F938F9389E39AE01F
:101F5800A0E0AF939F938F931F921F921F921F929F
:101F68001F9286E39AE0A0E0AF939F938F930E941D
:101F7800AB20CDBFDEBFF80183819481A581009796
:101F8800A105C1F0AF939F938F938FE49AE0A0E0EF
:101F9800AF939F938F931F921F921F921F921F922E
:101FA80086E39AE0A0E0AF939F938F930E94AB20C3
:101FB800CDBFDEBF84E69AE0A0E0AF939F938F93F6
:101FC8001F921F921F921F921F9286E39AE0A0E031
:101FD800AF939F938F930E94AB20CDBFDEBFCAC241
:101FE80084E29AE0A0E0AF939F938F931F921F9291
:101FF8001F921F921F9286E39AE0A0E0AF939F93EF
:102008008F930E94AB20CDBFDEBFB4C286E79AE0B3
:10201800A0E0AF939F938F93CE0101969F938F93E8
:1020280085E89AE0A0E0AF939F938F9386E39AE0C8
:10203800A0E0AF939F938F930E94AB20CDBFDEBFEC
:10204800892B09F0BCC0C8010796A0E8AF939F93FD
:102058008F938DE89AE0A0E0AF939F938F93CE0182
:102068000196A0E8AF939F938F930E94EC3FF801ED
:102078008081CDBFDEBF813041F120F0823009F48C
:102088004DC075C0F80183818F9382818F938285BB
:102098008F9381858F9380858F9387818F9381E933
:1020A8009AE0A0E0AF939F938F931F921F921F9285
:1020B8001F921F9286E39AE0A0E0AF939F938F93BD
:1020C8000E94AB20CDBFDEBF53C0F80183818F9340
:1020D80082818F9386818F9385818F9384818F935B
:1020E80082858F9381858F9380858F9387818F9346
:1020F80084EA9AE0A0E0AF939F938F931F921F9278
:102108001F921F921F9286E39AE0A0E0AF939F93DD
:102118008F930E94AB20CDBFDEBF2AC0F801838118
:102128008F9382818F9386818F9385818F9384810A
:102138008F9382858F9381858F9380858F938781F5
:102148008F938CEB9AE0A0E0AF939F938F931F92AD
:102158001F921F921F921F9286E39AE0A0E0AF930E
:102168009F938F930E94AB20CDBFDEBF01C080E05C
:10217800F8019385992309F4FDC18111FBC11F92D0
:102188009F9382858F9381858F9380858F93878195
:102198008F9382ED9AE0A0E0AF939F938F931F9265
:1021A8001F921F921F921F9286E39AE0A0E0AF93BE
:1021B8009F938F930E94AB20CDBFDEBFDBC180E031
:1021C800D9C186EE9AE0A0E0AF939F938F93CE019A
:1021D80001969F938F9385E89AE0A0E0AF939F9331
:1021E8008F9386E39AE0A0E0AF939F938F930E942A
:1021F800AB20CDBFDEBF892B09F094C0C80107967C
:10220800A0E8AF939F938F938DE89AE0A0E0AF93F7
:102218009F938F93CE010196A0E8AF939F938F93DE
:102228000E94EC3FF8018081CDBFDEBF813041F1D3
:1022380020F0823009F44DC077C0F80183818F9374
:1022480082818F9382858F9381858F9380858F93E9
:1022580087818F9381E99AE0A0E0AF939F938F9352
:102268001F921F921F921F921F9286E39AE0A0E08E
:10227800AF939F938F930E94AB20CDBFDEBF7AC1EF
:10228800F80183818F9382818F9386818F938581D3
:102298008F9384818F9382858F9381858F93808597
:1022A8008F9387818F9384EA9AE0A0E0AF939F93FE
:1022B8008F931F921F921F921F921F9286E39AE09C
:1022C800A0E0AF939F938F930E94AB20CDBFDEBF5A
:1022D80051C1F80183818F9382818F9386818F9377
:1022E80085818F9384818F9382858F9381858F9346
:1022F80080858F9387818F938CEB9AE0A0E0AF93D2
:102308009F938F931F921F921F921F921F9286E393
:102318009AE0A0E0AF939F938F930E94AB20CDBF2C
:10232800DEBF28C180E026C180E024C1F801808199
:102338009181A281B3810097A105B10509F419C162
:10234800BF93AF939F938F9385EF9AE0A0E0AF93ED
:102358009F938F931F921F921F921F921F9286E343
:102368009AE0A0E0AF939F938F930E94AB20CDBFDC
:10237800DEBF00C1F80185811F928F9383818F93FF
:1023880082818F9381818F9380818F9385E09BE0F9
:10239800A0E0AF939F938F931F921F921F921F925B
:1023A8001F920F2EF6E3CF2EFAE0DF2EF0E0EF2E8D
:1023B800F02DEF92DF92CF920E94AB20F80184813A
:1023C8001F928F9383818F9382818F9381818F93C3
:1023D80080818F9389E19BE0A0E0AF939F938F93D7
:1023E8001F921F921F921F921F92EF92DF92CF921D
:1023F8000E94AB20CDBFDEBFBDC0F80180819181B6
:10240800A2810097A105D9F0AF939F938F931F9254
:102418004F938DE29BE0A0E0AF939F938F931F9221
:102428001F921F921F921F9286E39AE0A0E0AF933B
:102438009F938F930E94AB20CDBFDEBF01C080E089
:10244800F801238134814581211531054105D1F0F9
:102458004F933F932F931F92FF9281E49BE0A0E05C
:10246800AF939F938F931F921F921F921F921F9259
:1024780086E39AE0A0E0AF939F938F930E94AB20EE
:10248800CDBFDEBFF8012681378140852115310592
:102498004105D1F04F933F932F931F92FF9285E50B
:1024A8009BE0A0E0AF939F938F931F921F921F9280
:1024B8001F921F9286E39AE0A0E0AF939F938F93B9
:1024C8000E94AB20CDBFDEBFF80121853285438550
:1024D800211531054105D1F04F933F932F931F925A
:1024E800FF9289E69BE0A0E0AF939F938F931F92A2
:1024F8001F921F921F921F9286E39AE0A0E0AF936B
:102508009F938F930E94AB20CDBFDEBFF801248537
:102518003585468521153105410561F14F933F9376
:102528002F931F92FF928DE79BE0A0E0AF939F93BC
:102538008F931F921F921F921F921F9286E39AE019
:10254800A0E0AF939F938F930E94AB20CDBFDEBFD7
:1025580011C0009388571093895780E00BC00093EF
:1025680086571093875780E005C08FEF03C080E03F
:1025780001C080E0A096CDBFDEBFDF91CF911F9153
:0C2588000F91FF90EF90DF90CF9008952E
:10259400A0E2B0E0E0EDF2E10C94E6418A8F9B8F7B
:1025A400FB01298320812D8331813C8F828193819A
:1025B4008A8B9B8B248135812A873B8780859185F3
:1025C4008D8F9E8F46805780FA01C080D180E28033
:1025D400F38020E030E0A901C701B6010E949445D0
:1025E40087FF06C0F7FAF094F7F8F0948DE204C080
:1025F4005D8152FFF4C28BE2F20180832A853B8520
:10260400215031092887398741E050E04B835C83AE
:1026140006C08A859B85888799871B821C82B7019F
:10262400A6017F77E9810E2E000CFF0BE88BF98B56
:1026340041155105F0E86F07FFE77F07C1F42889CA
:102644003989215431098B819C81840D951D2A314E
:10265400310520F44FE95EE060E003C043EA5EE048
:1026640060E00E94E84363EA7EE080E01CC08B8166
:102674009C81840D951D4130510560487F47E8F0E9
:1026840028893989215431092A31310520F447EA4E
:102694005EE060E003C04BEA5EE060E00E94E84375
:1026A4006BEA7EE080E00E942443A20160E8ED80B2
:1026B400FC8C0A851B859C018AC220E3FC012083D3
:1026C400EB81FC813196E40DF51D2B813C812E5F5D
:1026D4003F4F2B833C834889598941545109488F82
:1026E400598F4A31510510F088E701C088E580838D
:1026F40020E030E0A901C701B6010E949445612C95
:10270400712C1F8E1982882309F464C050E858A3E1
:102714008FE38A832F8D398148A15A816F8D798106
:1027240088A19A810E94E3445B018C01A701960170
:102734000E94994518160CF442C09FEF691A790A51
:10274400AF8EB98208A31A83E5CF20E030E040E0E1
:102754005FE36F8D798188A19A810E94A64520E06C
:1027640030E0A9010E949445811118C020E030E0B6
:1027740040E85AE56F8D798188A19A810E94A64527
:102784006F8F798388A39A8320E030E040E85AE58C
:10279400C701B6010E94A6456B017C0120E030E030
:1027A40040E05FE36F8D798188A19A810E94A645FC
:1027B4006F8F798388A39A83A1E06A1A71082F8D99
:1027C400398148A15A81C701B6010E94944587FD09
:1027D400BCCF04C0E0E8E8A3FFE3FA832A893B897D
:1027E40037FD02C0C90102C088E190E0AC014F5F2F
:1027F4005F4F4C875D878F8C9980A8A0BA801601A3
:1028040087011E821F829401A501B101C8010E94A3
:10281400A2450E94D82F6C8B7D8B8E8B9F8B94014D
:10282400A5010E94A6459B01AC01B101C8010E940B
:10283400E2441B018C0120E030E040E85DE3B40198
:10284400C5010E94A6454B015C018E819F810196C2
:102854008E839F83EA89FB89F7FF09C020E030E07B
:10286400A901B101C8010E949445882341F02C8537
:102874003D854E815F81421753072CF204C08E813F
:102884009F818C879D8720E030E040E051E4B401D3
:10289400C5010E94A6454B015C019B01AC01B1013D
:1028A400C8010E94944587FD12C0A5019401B1019D
:1028B400C8010E94944581110DC06C897D898E895F
:1028C4009F890E94E94461707727672B19F4812C52
:1028D400912C5401A5019401C701B6010E94E3445F
:1028E4006B017C01DC01CB01BF770097A048BF4797
:1028F40009F4A5CE28843984F2E02F1A31082C85F6
:102904003D85319521953109288B398B0B811C81AB
:10291400A12CB12C1E821F82812C912C4D8D5E8D99
:10292400455051094C8B5D8B08871987EC89FD89CB
:102934000E171F0708F092C02F8D398148A15A81C4
:10294400C701B6010E94A2450E94D82F6C877D87DB
:102954008E879F870E94E944AB016115710539F4A4
:102964008114910421F05FEFA51AB50A4EC0EE81DF
:10297400FF81EF2B91F48114910479F00F5F1F4FC5
:10298400E885F985E40DF51D2EE2208331E0231A54
:102994003108E1E0F0E0EE83FF83F201E00FF11F84
:1029A40095012115310529F0A0E3A19321503109A6
:1029B400F8CFF801EA0DFB1DE887F9872A183B08D0
:1029C4004A3051051CF4605D7F4F02C0695A7F4F45
:1029D400288D398D2A31310550F4CB01806281561E
:1029E40091094A9720F4CB010E946E44BC010885EA
:1029F40019850F5F1F4FE885F985E40DF51D608388
:102A040031E0231A3108A12CB12C2F8D398148A132
:102A14005A816C857D858E859F850E94A6459B0184
:102A2400AC01C701B6010E94E2446B017C0120E0C5
:102A340030E040E85DE36F8D798188A19A810E943E
:102A4400A6456F8F798388A39A8341E0841A9108FD
:102A5400888999898815990509F066CF2E813F8167
:102A6400232B51F5F201E00FF11FA114B104E9F099
:102A74004A895B8914161506C4F45D8150FD15C09E
:102A84008EE28083F8013196E40DF51DC50120E343
:102A940021930197E9F70A0D1B1D0F5F1F4FC50115
:102AA40080959095280E391E07C08D8184FF04C03F
:102AB4008EE280830F5F1F4FF201E00FF11FEE8360
:102AC400FF831082ED8DFE8D3197E40DF51D10828C
:102AD40077FE07C0719461947108EE24E394F12C9D
:102AE40002C0E12CF12C21E030E08AE0C82ED12C88
:102AF400CF01841995096114710469F0C301B60109
:102B04000E94C442805D82933B012150310941E01F
:102B1400241A3108EDCF2130310581F3FC013197BE
:102B2400E40DF51DEF2811F42BE201C02DE2208302
:102B34000297F201E80FF91F288D398D2A313105EA
:102B440010F020E701C020E520830817190734F4AA
:102B5400AF0160E88E819F810E94E843320130E832
:102B6400832E4D8141FF28C040FD26C052E0251A26
:102B740031081214130404F5882DB3010E94244370
:102B8400840D951D9C01241935094B815C81241702
:102B940035073CF0FC012081E20DF31D20830197F1
:102BA400F1CFA10160E370E08B819C81840D951DC0
:102BB4000E9465441A861B86882DB3010E94244313
:102BC400ED80FC8C0A851B859C01682DA3018A8DF0
:102BD4009B8D0E94BE37A096E2E10C9447425D8132
:082BE40053FF17CD80E208CD7C
:102BEC002F923F924F926F927F928F929F92AF92C1
:102BFC00BF92CF92DF92EF92FF920F931F93CF93DE
:102C0C00DF93CDB7DEB76297CDBFDEBF4C016B0152
:102C1C00380119821A828FEF9FEF8B839C831D8260
:102C2C001E824F83588729873A87A12CB12CD60155
:102C3C002D913D914C912A0D3B1D411DB7FC4A95A0
:102C4C00F901542F0E94DB44862F611116C0F60146
:102C5C00208331834283F901542F0E94DB44653277
:102C6C0009F011C21901442EFFEF2F1A3F0A4F0A27
:102C7C00D6012D923D924C921BC0653241F3B401AA
:102C8C00082E000C990B0E9452384FEFA41AB40A6C
:102C9C00CECF6C32DCF06D3229F529813A8121607E
:102CAC0029833A830196A11DF60180839183A28327
:102CBC00F60180819181A281FC015A2F0E94DB4494
:102CCC006B3239F729813A812460EACF603221F4E2
:102CDC0029813A812860E4CF633251F429813A8109
:102CEC002061DECF603321F429813A812260D8CF74
:102CFC00B701C6010E946D398D839E8397FF0BC06F
:102D0C0029813A81F1E02F2729833A839195819586
:102D1C0091098D839E8389819A8180FF03C08D7F69
:102D2C0089839A83F60180819181A281FC015A2FBB
:102D3C000E94DB446E3261F40196A11DF601808382
:102D4C009183A283B701C6010E946D398B839C834A
:102D5C00C6010E944435182FD6019C9111968C9176
:102D6C00119712965C91E92FF82F0E94DB44862F65
:102D7C00660F990B0E94A244893609F44BC084F467
:102D8C00833609F41CC134F4853209F448C1813608
:102D9C00E1F053C18436F1F188360CF4EBC04DC12F
:102DAC00803709F4B2C03CF48E3609F4D8C08F36A3
:102DBC0009F46EC042C1853709F44BC0883709F459
:102DCC0086C0833709F039C110C1612F70E0A701AB
:102DDC00CE010B960E949840892B09F44BC1F60149
:102DEC0080819181A2819C014A2F2F5F3F4F4F4FD1
:102DFC00208331834283FC015A2F0E94DB44262F0F
:102E0C00AE01455F5F4FBE016F5F7F4FC4010E94F3
:102E1C00CA122DC1612F70E0970141E050E0CE0144
:102E2C000B960E94D029892B09F424C1F6018081CC
:102E3C009181A2810196A11D80839183A283AE0111
:102E4C00455F5F4FBE016F5F7F4FC4010E948F2AA9
:102E5C000EC1612F70E0970140E050E0CE010B965F
:102E6C000E94D029892B09F405C1F601808191813A
:102E7C00A2810196A11D80839183A283AE01455F3F
:102E8C005F4FBE016F5F7F4FC4010E94EC34EFC0F7
:102E9C00612F70E0970140E050E0CE010B960E944C
:102EAC00D029892B09F4E6C0F60180819181A28199
:102EBC000196A11D80839183A283AE01455F5F4F74
:102ECC00BE016F5F7F4FC4010E949532D0C0612F4D
:102EDC0070E0970140E050E0CE010B960E94D029A3
:102EEC00892B09F4C7C0F60180819181A2819C01D4
:102EFC004A2F2F5F3F4F4F4F208331834283FC017A
:102F0C005A2F0E94DB44262F20C0970140E050E04E
:102F1C0060EF70E0CE010B960E94D029892B09F44A
:102F2C00A9C0F60180819181A2810196A11D8083A7
:102F3C009183A2838B859C85892B31F400E010E072
:102F4C002EED3EE040E08DC028E7AE01455F5F4FBF
:102F5C00BE016F5F7F4FC4010E949D2788C0A501F1
:102F6C00460D571D612F70E09701CE010B960E9404
:102F7C006B3080C0612F70E0A701CE010B960E94D0
:102F8C009840892B09F476C0F60180819181A28149
:102F9C009C014A2F2F5F3F4F4F4F20833183428339
:102FAC00FC015A2F0E94DB44262FAE01455F5F4F78
:102FBC00BE016F5F7F4FC4010E94C00B58C0103818
:102FCC0009F058C0F60180819181A2810196A11D62
:102FDC0080839183A283D701ED91FC911197CF014E
:102FEC0002968D939C93808126C0103809F042C0C4
:102FFC00F60180819181A2810196A11D808391832C
:10300C00A283D701ED91FC911197CF0103968D937B
:10301C009C9320813181428100E010E022C0103865
:10302C0049F5F6012081318142812F5F3F4F4F4F8F
:10303C002083318342838B870EC085E28B87F60118
:10304C0020823182428219821A821D821E828FEF67
:10305C009FEF8B839C839E01255F3F4F40E801E0EF
:10306C0010E0BE016F5F7F4FC4010E94E9398A0DE9
:10307C009B1D0AC0F60180819181A2810196A11D40
:10308C0080839183A283C5016296CDBFDEBFDF91A1
:10309C00CF911F910F91FF90EF90DF90CF90BF9049
:1030AC00AF909F908F907F906F904F903F902F900C
:0230BC00089575
:1030BE00CF92DF92EF92CF93DF9390E08C30910519
:1030CE0008F026C2EB01FC01E658FF4F0C944A446F
:1030DE0080E021C28AED9CE0A0E0AF939F938F9396
:1030EE001F921F921F921F921F9286EE9CE0A0E0ED
:1030FE00AF939F938F930E94AB202DB73EB7255F62
:10310E003F4F2DBF3EBF07C289EE9CE0A0E0AF93BC
:10311E009F938F931F921F921F921F921F9286EE64
:10312E009CE0A0E0AF939F938F930E94AB202DB7AE
:10313E003EB7255F3F4F2DBF3EBFEDC185EF9CE0F3
:10314E00A0E0AF939F938F931F921F921F921F9297
:10315E001F9286EE9CE0A0E0AF939F938F930E9408
:10316E00AB202DB73EB7255F3F4F2DBF3EBFD3C11E
:10317E0088811F928F9380E09DE0A0E0AF939F9394
:10318E008F931F921F921F921F921F9286EE9CE0AA
:10319E00A0E0AF939F938F930E94AB202DB73EB7C5
:1031AE00235F3F4F2DBF3EBFB6C1CB01A0E8AF930B
:1031BE009F936F9380E09DE0A0E0AF939F938F93DA
:1031CE001F921F921F921F921F9286EE9CE0A0E00C
:1031DE00AF939F938F930E94AB202DB73EB7225F84
:1031EE003F4F2DBF3EBF97C188811F928F938FE0B7
:1031FE009DE0A0E0AF939F938F931F921F921F921B
:10320E001F921F9286EE9CE0A0E0AF939F938F9348
:10321E000E94AB202DB73EB7235F3F4F2DBF3EBF61
:10322E007AC1888181118FC085EF9CE0A0E0AF93B9
:10323E009F938F931F921F921F921F921F920F2E7A
:10324E00F6EECF2EFCE0DF2EF0E0EF2EF02DEF921B
:10325E00DF92CF920E94AB2089EE9CE0A0E0AF936C
:10326E009F938F931F921F921F921F921F92EF9206
:10327E00DF92CF920E94AB208B818F938A818F93A6
:10328E0089818F938EE19DE0A0E0AF939F938F9302
:10329E001F921F921F921F921F92EF92DF92CF9258
:1032AE000E94AB208DB79EB784968DBF9EBF8E8138
:1032BE008F938D818F938C818F9380E39DE0A0E01F
:1032CE00AF939F938F931F921F921F921F921F92E5
:1032DE00EF92DF92CF920E94AB208F811F928F933D
:1032EE0082E49DE0A0E0AF939F938F931F921F9275
:1032FE001F921F921F92EF92DF92CF920E94AB20ED
:10330E0098852DB73EB7255E3F4F2DBF3EBF992303
:10331E0009F401C18AED9CE0A0E0AF939F938F93D7
:10332E001F921F921F921F921F92AE2DC601AF9336
:10333E009F93CF920E94AB202DB73EB7255F3F4F94
:10334E002DBF3EBFE8C0813009F0E4C089EE9CE09D
:10335E00A0E0AF939F938F931F921F921F921F9285
:10336E001F920F2EF6EECF2EFCE0DF2EF0E0EF2EAA
:10337E00F02DEF92DF92CF920E94AB2085EF9CE072
:10338E00A0E0AF939F938F931F921F921F921F9255
:10339E001F92EF92DF92CF920E94AB208B818F9380
:1033AE008A818F9389818F9382E59DE0A0E0AF9310
:1033BE009F938F931F921F921F921F921F92EF92B5
:1033CE00DF92CF920E94AB208DB79EB784968DBFB1
:1033DE009EBF8E818F938D818F938C818F9383E689
:1033EE009DE0A0E0AF939F938F931F921F921F9229
:1033FE001F921F92EF92DF92CF920E94AB208F818D
:10340E001F928F9384E79DE0A0E0AF939F938F93DD
:10341E001F921F921F921F921F92EF92DF92CF92D6
:10342E000E94AB201F9286E08F9380E09DE0A0E08B
:10343E00AF939F938F931F921F921F921F921F9273
:10344E00EF92DF92CF920E94AB2098852DB73EB7B8
:10345E00285D3F4F2DBF3EBF992309F45CC083E822
:10346E009DE0A0E0AF939F938F931F921F921F92A8
:10347E001F921F92AE2DC601AF939F93CF920E94C3
:10348E00AB202DB73EB7255F3F4F2DBF3EBF43C08C
:10349E008EE89DE0A0E0AF939F938F931F921F92B3
:1034AE001F921F921F9286EE9CE0A0E0AF939F9317
:1034BE008F930E94AB202DB73EB7255F3F4F2DBF98
:1034CE003EBF29C08AE99DE0A0E0AF939F938F9302
:1034DE001F921F921F921F921F9286EE9CE0A0E0F9
:1034EE00AF939F938F930E94AB202DB73EB7255F6E
:1034FE003F4F2DBF3EBF0FC06093805770938157D3
:10350E0080E009C060937E5770937F5780E003C0C0
:10351E008FEF01C080E0DF91CF91EF90DF90CF90E1
:02352E000895FE
:103530002F923F924F925F926F927F928F929F92C3
:10354000BF92CF92DF92EF92FF920F931F93CF9390
:10355000DF93CDB7DEB72697CDBFDEBF7C01A0E8F5
:10356000D82EC92EBA2E4AE350E0BC018A2F0E9401
:1035700012433B01882E2FEF621A720A820A8301DE
:1035800020E030E009C09C3229F42F5F3F4F90E2E9
:10359000908302C02F5F3F4FF801E20FF31F90812D
:1035A0009111F1CFC3010E944D41F70180818E340A
:1035B00009F49EC038F4843409F49AC08D3409F4B7
:1035C000A3C1ACC1843509F493C0873509F490C018
:1035D000833509F427C1A2C1F301EE0FFF1FE258A2
:1035E000F84A808091808114910409F47DC026EA14
:1035F0003DE040E06D2D7C2D8B2D0E949334672B98
:10360000682B59F42FEA3DE040E06D2D7C2D8B2D89
:103610000E949334672B682B29F0B80183E0F401F2
:10362000099534C027EB3DE040E06D2D7C2D8B2DBE
:103630000E949334672B682B69F42FEB3DE040E048
:103640006D2D7C2D8B2D0E9493341B01482E672BF2
:10365000682B29F0B80181E0F401099517C028EC26
:103660003DE040E06D2D7C2D8B2D0E949334672B27
:10367000682B29F0B80180E0F401099507C02328E0
:10368000242821F0B80182E0F401099520ED3DE005
:1036900040E06D2D7C2D8B2D0E949334672B682B81
:1036A00021F0B80184E0F401099529ED3DE040E006
:1036B0006D2D7C2D8B2D0E949334672B682B29F068
:1036C000B80185E0F4010995F12C23EE3DE040E0DE
:1036D0006D2D7C2D8B2D0E949334672B682B21F050
:1036E000B80186E0F4010995FFEF6F1A7F0A06C062
:1036F000612C712C0F2EFDEFFF2EF02D22E06216B3
:1037000071040CF469CF0EC1EF2DF0E0EE0FFF1F36
:10371000EA57F84A808091808114910409F480C0AE
:10372000280130E8632ECE010196A0E8AF939F9365
:103730008F9389EE9DE0A0E0AF939F938F933F938B
:103740005F920F930E94C93F21EF3DE040E06D2D55
:103750007C2D8B2D0E949334CDBFDEBF672B682B51
:1037600009F04AC02AEF3DE040E06D2D7C2D8B2D05
:103770000E949334672B682B09F041C023E03EE0A0
:1037800040E06D2D7C2D8B2D0E949334672B682B90
:10379000C1F52BE03EE040E06D2D7C2D8B2D0E948D
:1037A0009334672B682BE1F01D821E828E010B5F24
:1037B0001F4FC801A0E8AF939F930F9384E19EE051
:1037C000A0E0AF939F938F936F925F924F920E946E
:1037D000C93FCDBFDEBF0F2EF3E0EF2EF02D18C096
:1037E0002CE13EE040E06D2D7C2D8B2D0E9493342A
:1037F000672B682B51F40CC0EE24E39409C0E12C34
:1038000007C06894EE24E1F803C06894EE24E2F85F
:1038100069817A818B819C8198014E2DF4010995F3
:10382000F39405C0F12C0F2EF5E0EF2EF02DF1E012
:10383000FF1508F069CF0F2EFDEFFF2EF02D72C09F
:10384000EE2DF0E0EE0FFF1FE657F84A80809180E2
:103850008114910409F456C025E23EE040E06D2D4C
:103860007C2D8B2D0E949334672B682B41F1CE0168
:103870000196A0E8AF939F938F9389EE9DE0A0E01F
:10388000AF939F938F93C801A0E8AF939F930F933B
:103890000E94C93F89819A81AB81BC81CDBFDEBFC7
:1038A000892B8A2B8B2B31F0B80180E0F40109952C
:1038B000F82E05C0B80181E0F4010995F82E2FE239
:1038C0003EE040E06D2D7C2D8B2D0E949334672BC4
:1038D000682B29F0B80183E0F4010995F82E28E35C
:1038E0003EE040E06D2D7C2D8B2D0E949334672BA4
:1038F000682B29F0B80182E0F4010995F82EFDEF5C
:10390000FF1681F0E39405C0E12C0F2EFDEFFF2E92
:10391000F02D21E02E1508F093CF04C00F2EFDEFFF
:10392000FF2EF02D8F2D2696CDBFDEBFDF91CF91DC
:103930001F910F91FF90EF90DF90CF90BF909F90DD
:103940008F907F906F905F904F903F902F90089551
:10395000ACE1B0E0EEEAFCE10C94E6411B01482E3C
:103960004887598729833A830A8F253231051CF409
:103970002130310539F486E190E080930040909346
:103980000140AAC161157105810509F4BEC1FB01A1
:10399000542D0E94DB44162F662309F49DC1842C0C
:1039A0003101103239F0812F012E000C990B09974B
:1039B000059750F4FFEF6F1A7F0A8F0AF301582D15
:1039C0000E94DB44162FEDCF1D3261F42FEF621AF7
:1039D000720A820AF301582D0E94DB44162F31E04F
:1039E000388B0CC01B3249F48FEF681A780A880AAA
:1039F000F301582D0E94DB44162F188A103309F06A
:103A000053C0E82C63019FEFC91AD90AE90AF601ED
:103A10005E2D0E94DB44162F89819A818F7E892B2F
:103A200009F044C0862F8F7D8835A9F5E2E06E0E3F
:103A3000711C811CF301582D0E94DB44162F862F28
:103A40008062082E000C990B81569109262F660F73
:103A5000330B29833A834A9738F089819A810E94EF
:103A6000B042892B41F067C189819A810E946E44DE
:103A70008753803194F336018E2C88859985892B64
:103A800009F031C11B82512C912C1C8E1B8E1C8283
:103A90001D821E8260C1E981FA81EF2B09F453C1B6
:103AA00036018E2C01E00DC000E003C036018E2CE3
:103AB00001E029813A81232B21F48AE090E0898377
:103AC0009A839A8D992399F0E889E1111FC0FFEF3D
:103AD000FA8B2FEF2B8B3FEF3C8B8FEF8D8B9FEF74
:103AE0009E8BEFEFEF8BF88F2FE7298F18C03FEFFA
:103AF0003A8B8FEF8B8B9FEF9C8BEFEFED8BFFEF74
:103B0000FE8B2FEF2F8B388F898F09C01A8A1B8A63
:103B10001C8A1D8A1E8A1F8A188E90E8998F198A1E
:103B20001B82512C912C1C8E1B8E1C821D821E828E
:103B3000EA81EE0FEE0BEA87212F2062022E000CA5
:103B4000330B21563109812F012E000C990B2A319C
:103B5000310528F40E946E4487538F8306C0C097B6
:103B60000A9708F097C010531F83FF818F2FFF0F14
:103B7000990B29813A81821793070CF08BC0398900
:103B8000311163C0AB80B52CC92CDC8CEB8CFC8074
:103B90000D811E8129813A814A85542F642F742F0B
:103BA000842F942F0E94893659016A017B018C0170
:103BB0009F81990F990B2F81392F492F592F692FE9
:103BC000792F892F0E9480442F833B874C875D8704
:103BD0006E877F87B82FA92F2B81352D492D5C8DBE
:103BE0006B8D7C818D819E81AF80BB84CC84DD8494
:103BF000EE84FF840B2F1A2F0E94894409F070F481
:103C00008A8D882381F12A893B894C895D896E8957
:103C10007F89888D998D0E94894428F5E2E2F0E041
:103C2000E0930040F0930140FA89FF832B892B87B2
:103C30003C893C878D898D879E899E87EF89EF8798
:103C4000B88DA98DF1E0F98B0EC02B812F835B8697
:103C50009C863C8D3D878B8D8E879C819F87BD8107
:103C6000AE81E1E0E98BFFEF6F1A7F0A8F0AF30163
:103C7000582D0E94DB44162F01E02F812B835B849B
:103C80009C843D853C8F8E858B8F9F859C83BD83D7
:103C9000AE8352CFE989E11115C0F889FF2391F075
:103CA0002B81352D492D5C8D6B8D7C818D819E8185
:103CB0000E9457432B83532E942E5C8F6B8F7C83F3
:103CC0008D839E8328853985232B09F444C00111F7
:103CD00012C0842C31010FC0E885F985EF2B09F45F
:103CE000D1CE842C31011B82512C912C1C8E1B8E29
:103CF0001C821D821E82A42DC101B0E0A7FF15C049
:103D0000E885F9856082718226C028853985232B54
:103D100009F4B8CE612C712C812C1B82512C912C72
:103D20001C8E1B8E1C821D821E82E885F985608296
:103D30007182828210C0E82C630100E020E130E053
:103D400029833A8305C001E088E090E089839A8363
:103D500036018E2CB6CE2B81352D492D5C8D6B8D89
:0E3D60007C818D819E816C96E2E10C9447423D
:103D6E00CF92DF92EF921F93CF93DF9390E08A3042
:103D7E00910508F0E0C1EB01FC01EE56FF4F0C94EB
:103D8E004A441F9283E08F9382E395E0A0E0AF93C5
:103D9E009F938F931F921F921F921F921F9282E4E6
:103DAE0095E0A0E0AF939F938F930E94AB208E85FA
:103DBE002DB73EB7235F3F4F2DBF3EBF8823F9F08F
:103DCE00688979890E946C0F8E851F928F9385E486
:103DDE0095E0A0E0AF939F938F931F921F921F9237
:103DEE001F921F9282E495E0A0E0AF939F938F9372
:103DFE000E94AB208DB79EB70D968DBF9EBF8A8158
:103E0E008F9389818F9388818F9385E595E0A0E0CC
:103E1E00AF939F938F931F921F921F921F921F9289
:103E2E000F2EF2E4CF2EF5E0DF2EF0E0EF2EF02D88
:103E3E00EF92DF92CF920E94AB208D858F938C856F
:103E4E008F9387E695E0A0E0AF939F938F931F9299
:103E5E001F921F921F921F92EF92DF92CF920E949B
:103E6E00AB208D818F938C818F938B818F9387E77E
:103E7E0095E0A0E0AF939F938F931F921F921F9296
:103E8E001F921F92EF92DF92CF920E94AB202DB71E
:103E9E003EB7275D3F4F2DBF3EBF88858F938F81E5
:103EAE008F938E818F9389E895E0A0E0AF939F93D7
:103EBE008F931F921F921F921F921F92EF92DF926B
:103ECE00CF920E94AB208B858F938A858F938985A5
:103EDE008F938BE995E0A0E0AF939F938F931F9202
:103EEE001F921F921F921F92EF92DF92CF920E940B
:103EFE00AB201F928CE38F938DEA95E0A0E0AF93F9
:103F0E009F938F931F921F921F921F921F92EF9259
:103F1E00DF92CF920E94AB20182F8F852DB73EB720
:103F2E00275D3F4F2DBF3EBF882309F405C168E3CF
:103F3E0076E289E00E94B71EFFC08DEB95E0A0E00F
:103F4E00AF939F938F931F921F921F921F921F9258
:103F5E000F2EF2E4CF2EF5E0DF2EF0E0EF2EF02D57
:103F6E00EF92DF92CF920E94AB2080ED95E0A0E021
:103F7E00AF939F938F931F921F921F921F921F9228
:103F8E00EF92DF92CF920E94AB20182F8DB79EB783
:103F9E0046968DBF9EBFD0C080EE95E0A0E0AF9359
:103FAE009F938F931F921F921F921F921F9282E4D4
:103FBE0095E0A0E0AF939F938F930E94AB20182FB4
:103FCE002DB73EB7255F3F4F2DBF3EBFB5C08DEB22
:103FDE0095E0A0E0AF939F938F931F921F921F9235
:103FEE001F921F9282E495E0A0E0AF939F938F9370
:103FFE000E94AB20182F8DB79EB70B968DBF9EBF1C
:10400E009BC02A819981888138853F933F813F9358
:10401E003E813F933D813F933C813F933B813F9354
:10402E001F922F931F929F931F928F9380EF95E075
:10403E00A0E0AF939F938F931F921F921F921F9298
:10404E001F9282E495E0A0E0AF939F938F930E941E
:10405E00AB20182F2DB73EB7295E3F4F2DBF3EBF69
:10406E006BC0CB01A0E8AF939F936F9380E196E076
:10407E00A0E0AF939F938F931F921F921F921F9258
:10408E001F9282E495E0A0E0AF939F938F930E94DE
:10409E00AB20182F8DB79EB70E968DBF9EBF4CC00E
:1040AE00CB01A0E8AF939F936F9384E296E0A0E0DC
:1040BE00AF939F938F931F921F921F921F921F92E7
:1040CE0082E495E0A0E0AF939F938F930E94AB2084
:1040DE00182F2DB73EB7225F3F4F2DBF3EBF2CC0CE
:1040EE00CB01A0E8AF939F936F9388E396E0A0E097
:1040FE00AF939F938F931F921F921F921F921F92A7
:10410E0082E495E0A0E0AF939F938F930E94AB2043
:10411E00182F8DB79EB70E968DBF9EBF0DC06093A4
:10412E008C5770938D5710E007C060938A57709329
:10413E008B5710E001C01FEF812FDF91CF911F91A0
:08414E00EF90DF90CF9008957F
:104156006F927F928F929F92AF92BF92CF92DF9291
:10416600EF920F931F93CF93DF9300D000D0CDB77C
:10417600DEB76A8C7B8CCC8CDD8CEE8C19821A8235
:10418600C114D104E10409F451C08091DE57813095
:1041960041F463E47EE080E00E945C4481E090E0CC
:1041A600B8C18E01015E1F4F4E2D960160E074E08E
:1041B60082E09EE40E9472375C0102E01EE426C0A3
:1041C60083E69EE0A0E0FC015A2F0E945344FB01C7
:1041D60009958823D9F08FE59EE0A0E0FC015A2FCF
:1041E6000E9453444801FFEF8F1A9F0AD8018C9111
:1041F600FB01099585E69EE0A0E0FC015A2F0E948E
:104206005344FB0109958823A9F38401D8018C91B5
:104216008111D6CFA50160E070E082E09EE40E94A5
:1042260065446114710411F0F30110828FEF9FEF62
:10423600A7E0B0E08093825790938357A09384576A
:10424600B09385573CC181E69EE0A0E0FC015A2F61
:104256000E945344FB010995882309F430C18981E2
:104266009A8181159440A4F409811A81C8010196A6
:1042760089839A838DE59EE0A0E0FC015A2F0E9477
:104286005344FB010995F801EE5FF14B808319C099
:10429600E981FA81A981BA81A050B24B8C91E15093
:1042A600F24B8083E981FA81A981BA81AF5FB14B74
:1042B6008C91E050F24B808389819A8101978983A2
:1042C6009A83E981FA81EF5FF14B8081833209F4A9
:1042D60014C189819A8102970CF4F1C0E981FA81AF
:1042E600EF5FF14B80818A3009F0E9C0E981FA81FC
:1042F600E050F24B80818D3009F0E1C089819A81CE
:1043060004970CF47FC0E981FA81E150F24B808179
:104316008B3409F077C0E981FA81E250F24B808153
:104326008F3409F06FC0E981FA81EF5FF14B10829B
:10433600E981FA81E050F24B10826114710409F4AC
:10434600DFC08F89988DA98D892B8A2B09F446C0E9
:1043560062E07EE480E82F89388D498D0E9493348F
:104366004B01A82E6F89788D898D0E9424436C019C
:104376004BE45EE060E0C4010E949B388C0128C0DB
:10438600C801A0E82F89388D498DBC018A2F0E946B
:104396009334672B682BA1F0D3010D900020E9F729
:1043A600CD0122E030E04EE45EE060E001970E943D
:1043B600B441A8014C0D5D1D60E8C3010E94CD41CA
:1043C6004BE45EE060E080E090E00E949B388C0168
:1043D60001151105A9F620E030E097C0E981FA81C0
:1043E600E350F24B108229813A812550310942E08F
:1043F6005EE460E8C3010E94B44129813A812550F8
:10440600310983C08091024E8534F9F49091034EB0
:104416009235D9F49091044E9235B9F4E981FA8136
:10442600EF5FF14B1082E981FA81E050F24B108286
:104436006114710409F467C048E05EE460E8C301F2
:104446000E94E8432FEF3FEF60C08D30C1F58091A9
:10445600034E8B32A1F5E981FA81EE5FF14B1082B2
:10446600BE016D5F7F4F8AE697E50E94D33D8823A4
:10447600C9F0EB81FC8180E093E0DF019C011D9295
:1044860021503040E1F742E05EE460E820E033E0AE
:104496008B819C810E94813F6B817C818FE597E5B2
:1044A6000E94143B6114710421F4C114D104E10487
:1044B60019F019821A8203C020E030E026C08091EC
:1044C600825790918357A0918457B0918557AC013C
:1044D600BD014150510961097109409382575093BA
:1044E60083576093845770938557892B8A2B8B2B20
:1044F60009F0A9CE20E030E008C02EEF3FEF05C05E
:1045060020E030E002C02FEF3FEF1092DE57822FFF
:10451600932F2496CDBFDEBFDF91CF911F910F91D0
:10452600EF90DF90CF90BF90AF909F908F907F904D
:044536006F900895E5
:10453A002F923F924F926F927F928F92AF92BF9239
:10454A00CF92DF92EF920F931F93CF93DF93CDB762
:10455A00DEB72597CDBFDEBF6C0120E8E22E29E049
:10456A0033E040E08E2DB6010E949334672B682B0E
:10457A00E9F00E94B045A0E8AF939F938F9386E13C
:10458A0093E0A0E0AF939F938F9342E055E55F934A
:10459A004F930E94EC4282E095E59C0140E86DE26F
:1045AA0073E080E00E943141CDBFDEBF2CE533E0ED
:1045BA0040E08E2DB6010E949334672B682B09F4D4
:1045CA00BAC021E633E040E08E2DB6010E94933452
:1045DA001B01482E6C837D832FE633E040E08E2D4D
:1045EA00B6010E94933469837A838B83A980BA8047
:1045FA0020E833E040E08E2DB6010E949334611525
:10460A00710509F498C03B0130E8832E25E833E0B0
:10461A0040E0772D882D0E949334FB0110828F92FF
:10462A007F926F9289E893E0A0E0AF939F938F9374
:10463A0082E095E59F938F930E94EC428C010F5F75
:10464A001F4FCDBFDEBF8C819D810097F1F1BC0168
:10465A0080E826EA33E040E00E949334FB011082AE
:10466A009DE0290E311CB10180E80E94E338809355
:10467A00D6579093D7579F938F938AEA93E0A0E0F7
:10468A00AF939F938F930E9482418091D7578F93C4
:10469A008091D6578F9383EC93E0A0E0AF939F93DA
:1046AA008F9398012E5F3A4A2C833D833F932F9331
:1046BA000E94EC428C819D819C0140E862E075E594
:1046CA0080E80E943141CDBFDEBFAB28A1F16980ED
:1046DA007A8030E1630E711C40E8842E29EE33E0C3
:1046EA0040E0662D772D882D0E949334FB011082BD
:1046FA008F927F926F928DEE93E0A0E0AF939F939B
:10470A008F930E9482410E5F1A4A8F927F926F9214
:10471A0089EF93E0A0E0AF939F938F931F930F933A
:10472A000E94EC42980140E862E075E580E80E9448
:10473A003141CDBFDEBF21E134E040E08E2DB6012C
:10474A000E949334672B682B09F4B3C029E134E043
:10475A0040E08E2DB6010E9493341B01482E26E2BA
:10476A0034E040E08E2DB6010E94933469837A8347
:10477A008B832FE234E040E08E2DB6010E94933401
:10478A003B01882E21143104410409F492C0E42C1F
:10479A0061019CE0C90ED11CE11C4DE750E08E2D51
:1047AA00B6010E941243FB01108229813A814B8192
:1047BA0021153105410591F11901442E38E0230EE6
:1047CA00311C411C2EE334E040E0842DB1010E94EB
:1047DA009334FB0110824F923F922F92EF92DF9215
:1047EA00CF9281E494E0A0E0AF939F938F9342E04D
:1047FA0055E55F934F930E94EC42842DB1010E94CC
:10480A00E3380E94AC3982E095E59C0140E86DE20C
:10481A0073E080E00E943141CDBFDEBF61147104B4
:10482A00810409F446C03EE0630E711C811C2EE32C
:10483A0034E040E0882DB3010E949334FB011082DA
:10484A008F927F926F92EF92DF92CF9283E894E0F9
:10485A00A0E0AF939F938F9342E055E55F934F9308
:10486A000E94EC42882DB3010E94E33828EE33E01F
:10487A00AC01429FC001439F900D529F900D11249D
:10488A008093D4579093D5579F938F938BEC94E052
:10489A00A0E0AF939F938F930E94824182E095E5B7
:1048AA009C0140E86DE273E080E00E943141CDBF97
:1048BA00DEBF2596CDBFDEBFDF91CF911F910F914D
:1048CA00EF90DF90CF90BF90AF908F907F906F90D6
:0848DA004F903F902F900895CC
:1048E2006F927F928F92CF92DF92EF92CF93DF936C
:1048F200CDB7DEB7C058D109CDBFDEBF90E08E3054
:10490200910508F0A6C1FC01E456FF4F0C944A44FD
:104912008BED9BE0A0E0AF939F938F93CE01019626
:104922009F938F931F921F921F9284EE9BE0A0E0B1
:10493200AF939F938F930E94AB20CDBFDEBF8AC1FE
:1049420087EE9BE0A0E0AF939F938F931F921F92FD
:104952001F921F921F9284EE9BE0A0E0AF939F9361
:104962008F930E94AB20CDBFDEBF74C1FB011082CA
:104972008EEE9BE0A0E0AF939F938F937F936F9314
:1049820087EF9BE0A0E0AF939F938F9384EE9BE031
:10499200A0E0AF939F938F930E94AB20CDBFDEBF69
:1049A20059C1FB0110828DEF9BE0A0E0AF939F9372
:1049B2008F937F936F9386E09CE0A0E0AF939F93E9
:1049C2008F9384EE9BE0A0E0AF939F938F930E941E
:1049D200AB20CDBFDEBF3EC1FB0110828CE09CE06C
:1049E200A0E0AF939F938F937F936F9384E19CE0BA
:1049F200A0E0AF939F938F9384EE9BE0A0E0AF93F0
:104A02009F938F930E94AB20CDBFDEBF23C1FB01DA
:104A1200108289E19CE0A0E0AF939F938F937F93F4
:104A22006F9385E29CE0A0E0AF939F938F9384EE17
:104A32009BE0A0E0AF939F938F930E94AB20CDBFEA
:104A4200DEBF08C1FB0110828EE29CE0A0E0AF93C2
:104A52009F938F937F936F938AE39CE0A0E0AF9341
:104A62009F938F9384EE9BE0A0E0AF939F938F93ED
:104A72000E94AB20CDBFDEBFEDC083E49CE0A0E08E
:104A8200AF939F938F931F921F921F921F921F9219
:104A920084EE9BE0A0E0AF939F938F930E94AB20A4
:104AA200CDBFDEBFD7C0FB0183818F9382818F93FD
:104AB20081818F9380818F938FE49CE0A0E0AF93FC
:104AC2009F938F931F921F921F921F921F9284EEA9
:104AD2009BE0A0E0AF939F938F930E94AB20CDBF4A
:104AE200DEBFB8C0FB0183818F9382818F93818166
:104AF2008F9380818F938FE59CE0A0E0AF939F938B
:104B02008F931F921F921F921F921F9284EE9BE01F
:104B1200A0E0AF939F938F930E94AB20CDBFDEBFE7
:104B220099C03B0130E83F937F926F938FE69CE000
:104B3200A0E0AF939F938F931F921F921F921F9299
:104B42001F9284EE9BE0A0E0AF939F938F930E940D
:104B5200AB20CDBFDEBF7EC0FB01108280E89CE0AF
:104B6200A0E0AF939F938F937F936F938EE89CE027
:104B7200A0E0AF939F938F9384EE9BE0A0E0AF936E
:104B82009F938F930E94AB20CDBFDEBF63C03B01DA
:104B920030E8832E3F937F926F9387E99CE0A0E0F9
:104BA200AF939F938F931F921F921F921F921F92F8
:104BB2000F2EF4EECF2EFBE0DF2EF0E0EF2EF02DE5
:104BC200EF92DF92CF920E94AB208F927F926F92F0
:104BD20086EA9CE0A0E0AF939F938F931F921F926F
:104BE2001F921F921F92EF92DF92CF920E94AB20F0
:104BF2008F927F926F9288EB9CE0A0E0AF939F939D
:104C02008F931F921F921F921F921F92EF92DF9219
:104C1200CF920E94AB20CDBFDEBF1CC0FB01108231
:104C220087EC9CE0A0E0AF939F938F937F936F9369
:104C320082ED9CE0A0E0AF939F938F9384EE9BE084
:104C4200A0E0AF939F938F930E94AB20CDBFDEBFB6
:104C520001C08FEFC058DF4FCDBFDEBFDF91CF91D4
:0E4C6200EF90DF90CF908F907F906F9008952D
:104C70006F927F928F92CF92DF92EF920F931F935A
:104C8000CF93DF93CDB7DEB7C951D140CDBFDEBFE3
:104C9000813009F433C130F0823009F449C08330E7
:104CA000E9F03BC12AEC37E040E089E1F901DE019F
:104CB000AF5FBE4F742F0E94DA436CE476E080E071
:104CC0000E945C4469E776E080E00E945C44BE019B
:104CD0006F5F7E4F84E00E94B71E1FC1CF5FDE4F23
:104CE0001882C150D140CE5FDE4F1882C250D140F1
:104CF000CD5FDE4F1882C350D14080EB96E0A0E03C
:104D0000CC5FDE4F88839983AA83C450D1408FED56
:104D100096E0A0E0C95FDE4F88839983AA83C750DD
:104D2000D140BE016F5F7E4F87E00E94B71EF5C085
:104D30006B0120E8E22E29E237E040E08E2DB6013B
:104D40000E9493343B01882E672B09F47BC02BE330
:104D500037E040E08E2DB6010E9493346B01E82EBF
:104D60006115710509F4D9C080E82AE437E040E014
:104D70000E949334FB01309709F4CFC01082B30135
:104D800080E82AE437E040E00E949334FB0130974A
:104D900009F4C3C01082C6010F9622E1620E711C95
:104DA000630120E8E22EA0E8AF939F938F932F93A7
:104DB000DF926F9280E597E0A0E0AF939F938F938F
:104DC0008E010F5F1F4F1F930F930E94FF42C80178
:104DD000A0E8AF939F930F9389E895E0A0E0AF938D
:104DE0009F938F931F921F921F921F921F920F2EBD
:104DF000F2E46F2EF5E07F2EF0E08F2EF02D8F92F3
:104E00007F926F920E94AB20EF92DF92CF9285E566
:104E100095E0A0E0AF939F938F931F921F921F92F4
:104E20001F921F928F927F926F920E94AB20CDBFF4
:104E3000DEBF60E070E083E00E94B71E81E08093F7
:104E4000DF576BC02EE637E040E08E2DB6010E94A2
:104E500093346B01E82E6115710509F45EC080E89A
:104E60002AE437E040E00E949334FB01309709F4D4
:104E700054C0108292E1C90ED11CC601A0E8AF93C4
:104E80009F93CF9280E897E0A0E0AF939F938F939A
:104E90008E010F5F1F4F1F930F930E94FF428CEDF7
:104EA00095E00E94CC43CF5FDE4F1882C150D140C5
:104EB000CE5FDE4F1882C250D140CD5FDE4F1882E8
:104EC000C350D140C801A0E8CC5FDE4F88839983EE
:104ED000AA83C450D14089EC97E0A0E0C95FDE4FBF
:104EE00088839983AA83C750D140BE016F5F7E4FEC
:104EF00087E00E94B71ECDBFDEBF0FC060E070E04C
:104F000089E00E94B71EE0918C57F0918D57309741
:104F100021F06FED77E585E009958DEFC75EDE4FF7
:104F2000CDBFDEBFDF91CF911F910F91EF90DF904A
:0A4F3000CF908F907F906F9008954E
:104F3A00A4E1B0E0E3EAF7E20C94E6418F839887B4
:104F4A0069837A834B8B5C8B122FDB011296ED916E
:104F5A00FC91139714962D913C9115972D833E83BE
:104F6A00ED90FC90119716962D903C901797F7FDAF
:104F7A0003C0E894E1F802C0E1E0F0E0C701807103
:104F8A00992789879A87E4FE1FC0AB89BC892C912F
:104F9A0011963C91119712964C91129713965C9127
:104FAA00139714966C91149715967C9115971696EB
:104FBA008C91169717969C91A0E00E942A4421F0A2
:104FCA008D819E81029702C08D819E8197012870F2
:104FDA0033272B873C87E3FC0197AB89BC894C902C
:104FEA0011965C90119712966C90129713967C907A
:104FFA00139714968C90149715969C90159716965D
:10500A00AC9016971796BC90A981BA811896CD9044
:10501A00DC901997B1E0CB1AD108D101AC0DBD1DB6
:10502A001C928B839C839F01281B390B2D873E87FB
:10503A00C701827099278F87988B812F012E000CC8
:10504A00990BDC01A154B109A98BBA8B32E0C316C2
:10505A00D10430F489859A85892B09F04CC073C034
:10506A009201A301B401C501A0E00E942A4481F182
:10507A00B1E0CB1AD108C2018F7099278A30910505
:10508A0014F4C09602C0895A9F4FE989FA897A971F
:10509A0048F49C012062215631092A31310510F465
:1050AA000E946E44F101EC0DFD1D80832B813C8131
:1050BA00215031092B833C839201A301B401C5011C
:1050CA0004E00E94154129013A014B015C01BECF5F
:1050DA008D859E85AB81BC818A0F9B1F1816190688
:1050EA003CF21A161B060CF0B5CFEF85F889EF2BA8
:1050FA0009F0BECFAFCFAB89BC892C9111963C91F8
:10510A00119712964C91129713965C9113971496D5
:10511A006C91149715967C91159716968C91169703
:10512A0017969C91A0E00E942A4469F0F101EC0DC7
:10513A00FD1D31971083B2E0CB1AD108F101EC0DB5
:10514A00FD1D80E38083EB85FC85EF2B41F0F1E0C8
:10515A00CF1AD108F101EC0DFD1D80E28083A981EF
:10516A00BA8118962D913C911997215031092C1921
:10517A003D09C20CD31CA60160E80D811E818F81F6
:10518A0098850E94BE379C01EF81F88580819181C4
:10519A0090FF09C0A981BA8112968D919C911397AB
:1051AA00821793070CF4C9016496E2E10C94474212
:1051BA00A8E0B0E0E3EEF8E20C94E6414C016F831C
:1051CA007887FA0159018481958189839A83E084D9
:1051DA00F18426803780C4010E940F40F5012081A6
:1051EA003181820F931F8083918389819A81892BD0
:1051FA0021F4F7013197E983FA834AE0C42ED12CCE
:10520A00612C712C00E010E0C70101978D839E8309
:10521A0089819A81081719070CF097C0ED81FE81E0
:10522A000E171F070CF091C0C4010E94E7357C01DC
:10523A009FEFE916F90639F4101611060CF485C029
:10524A008FEF9FEFA4C001151105B1F4EBE2EE1642
:10525A00F10421F0FDE2EF16F10471F4F101E082AC
:10526A00F5018081918101968083918366246394FC
:10527A00712C01E010E0CCCFC101800F911F8B830C
:10528A009C8306151705C1F538019FEF691A790A3B
:10529A00EAE0CE16D10441F4F0E3EF16F10451F539
:1052AA0028E0C22ED12C28C088E0C816D10411F5F6
:1052BA00C701806288379105E9F4C4010E94E73585
:1052CA002C01B4010E94B840C2010E949C42892B61
:1052DA0071F0EB81FC81E0828301F501808191818B
:1052EA0001968083918390E1C92ED12C91CFB4018C
:1052FA00C20111C0612C712CC701C0970A9770F0C6
:10530A00F0E1CF16D10429F4C7010E949C42892BEF
:10531A0081F4B401C7010E94B84017C088E0C816DA
:10532A00D10439F498E3E916F1041CF08AE0C82E96
:10533A00D12CEB81FC81E0820F5F1F4FF501808148
:10534A00918101968083918363CFF101E00FF11F70
:10535A001082B10180E8FAE0CF16D10439F42AE0CC
:10536A0030E040E050E00E94414505C0960140E02F
:10537A0050E00E944745EF81F885208331834283BC
:10538A005383648375838683978380E090E02896AD
:06539A00E2E10C94474221
:1053A0000F931F93CF93DF93FC01D90168387105E8
:1053B00059F194F461387105D9F12CF46038710514
:1053C00009F483C0A5C06238710509F464C064386B
:1053D000710509F47AC09CC0603A710509F453C0A4
:1053E0002CF46039710509F456C092C0603C710517
:1053F00009F443C0603F710509F08AC0CD91DC918A
:105400001197CE01039677C0CD91DC911197CE0113
:1054100002968D939C93452B39F09881892F880FA4
:10542000880B9083818361C088818083118269C0E9
:10543000CD91DC911197CE0104968D939C93452BD1
:1054400099F088819981AA81BB81AC01BD01770F58
:10545000440B542FBA0180839183A283B383448386
:105460004583468347832EC0088119812A813B8169
:10547000008311832283338346C0CD91DC91119741
:10548000CE01029638C0CD91DC911197CE010296E3
:105490008D939C9323C0CD91DC911197CE010896FA
:1054A0008D939C93788169815A814B813C812D81B8
:1054B0009E818F81708361835283438334832583EC
:1054C0009683878381E090E025C0CD91DC91119790
:1054D000CE0102968D939C93452B79F0998128817A
:1054E000892F880F880B2083918382838383848311
:1054F00085838683E6CF8D939C93088119810083F1
:105500001183128213821482158216821782DACFD7
:0E55100080E090E0DF91CF911F910F91089500
:10551E00ADE0B0E0E5E9FAE20C94E64189879A87BE
:10552E006B837C83FA01DB011296CD90DC9013978E
:10553E0014968D919C9115978D839E83ED90FC9082
:10554E001197E982FA8216960D90BC91A02DAF8329
:10555E00B887208031804280538064807580868039
:10556E0097808101B42DF52DE62D7B868C869D8648
:10557E009101A201B301C401A0E00E942A444CF49F
:10558E000E9457438901B42FF52FE62F7B878C8716
:10559E009D87D7FC04C0E894E1F8E982FA82910174
:1055AE00A201B301C401A0E0ED80FE800E942A4456
:1055BE001CF0898182FF04C081E0E81AF10805C061
:1055CE0083FF03C091E0E91AF108CE0101965C0158
:1055DE008AE0C82ED12C2B2F3F2F4E2F5B856C854A
:1055EE007D858B819C810E94AC2CFC019101A201D6
:1055FE00B301C401A0E00E942A441CF0898182FFFD
:10560E0012C031970F8118850E0F1F1F9101A20135
:10561E00B301C401A0E00E942A4414F08BE201C041
:10562E008DE2D80108C083FF07C03197AF81B885DE
:10563E00AE0FBF1F80E28C93E980FA80AB81BC81F4
:10564E0018962D913C911997215031092E1B3F0B25
:10565E008F819885E80FF91FAF0160E80D811E81DB
:10566E0089859A850E94BE379C01A985BA858D9140
:10567E009C9190FF07C0EB81FC8182819381821700
:0E568E0093070CF4C9012D96E2E10C944742FB
:10569C00CF92DF92EF92FF92C0909257D090935797
:1056AC00E0909457F0909557C701B60128EE33E07F
:1056BC0040E050E00E945440672B682B692B09F0A6
:1056CC0054C02091D4573091D55740E050E0C701D9
:1056DC00B6010E945440672B682B692B19F5609119
:1056EC009A5770919B5780919C5790919D576B0145
:1056FC007C012FEFC21AD20AE20AF20AC0929A5720
:10570C00D0929B57E0929C57F0929D570E94623A20
:10571C00609196577091975780919857909199579F
:10572C000E94263A8091D6579091D7571816190691
:10573C00E4F49F938F938DEE92E0A0E0AF939F9350
:10574C008F930E949B418091D6579091D757019788
:10575C008093D6579093D7570F900F900F900F9030
:10576C000F90892B11F40E9447438091E0578823B6
:10577C00D9F0609196577091975780919857909166
:10578C0099576B017C012FEFC21AD20AE20AF20A76
:10579C00C0929657D0929757E0929857F09299579B
:1057AC000E94263A1092E0572091E25721111DC019
:1057BC00822F90E0FC01EE0FFF1F8E0F9F1FFC014C
:1057CC00ED5AF84A408151816281411551056105BC
:1057DC0061F02F5F2093E25782E095E50E94E84349
:1057EC0062E075E584E00E94B71EFF90EF90DF90B9
:0457FC00CF900895AD
:10580000CF93DF93CDB7DEB76B97CDBFDEBF0E94DE
:1058100067438DEE9BE30E94674587EC9EE0A0E026
:10582000FC015A2F0E94534488E892E4FB01099539
:1058300083ED9EE0A0E0FC015A2F0E9453448EE9C4
:1058400095E4FB01099568EB78E080E00E945C44F8
:105850006BED78E080E00E945C4468EB78E080E0EB
:105860000E945C440E94324062E075E58CE00E9438
:10587000712482E095E56C01F0E8EF2EFF93DF9252
:105880008F938FEF98E0A0E0AF939F938F930E9448
:10589000824162E075E58AE00E947124EF92DF9216
:1058A000CF9282E199E0A0E0AF939F938F930E9403
:1058B000824162E075E58BE00E947124EF92DF92F5
:1058C000CF928AE299E0A0E0AF939F938F930E94DA
:1058D000824121E439E040E082E1F901DE011196E4
:1058E000742F0E94DA43BE016F5F7F4F85E00E94F4
:1058F000712462E075E581E00E9471246C2D7D2D9C
:105900008E2D0E945C4462E075E582E00E94712465
:105910006C2D7D2D8E2D0E945C446FEF7DE28AE020
:105920000E945F1889E0E5E7F7E5DE0153960190F4
:105930000D928A95E1F7BE016D5E7F4F83E00E9474
:105940005F18CDBFDEBF8091E157863011F40E9411
:085950004E2B0E943634F7CF04
:10595800A2E1B0E0E2EBFCE20C94E641FC010A8B28
:10596800912E822E732E642E552E462E7D83CC8644
:10597800DA86A886B986268137812E833F83D501AA
:105988008D919C91228133810084F185E02D31979E
:1059980037FF02C021E030E04E815F81E40FF51F40
:1059A8001082EB83FC831701A1E0B0E0A983BA83DE
:1059B800F901EE19FF09ED87FE879C012270332754
:1059C8002F87388B3A85330F330B398BEB81FC816A
:1059D8002E813F81E21BF30B4B815C8142175307F9
:1059E80009F44FC02A89392D482D572D662D752D5C
:1059F800842D9D81A0E00E942A4499F14C854B8713
:105A0800A42EBA84C988DC2CEC2CFC2C0C2D1C2D63
:105A18002A89392D482D572D662D752D842D9D8168
:105A28000E94F643C90129839A83805DAB81BC81BA
:105A38008E93AB83BC83B1E02B1A31082A89392DA8
:105A4800482D572D662D752D842D9D810E94F84374
:105A58002A8B932E842E752E662E572E482E9D83C4
:105A6800B5CF8D859E85820D931D1816190634F2C3
:105A78001214130444F48F859889892B09F0BECF3A
:105A880002C0E0E0F0E0A981BA81AB2B41F4A8851F
:105A9800B9858D919C9111978F7E8D939C93CF01A1
